{
  "_format": "hh-sol-artifact-1",
  "contractName": "PecuniaLock",
  "sourceName": "contracts/PecuniaLock.sol",
  "abi": [
    {
      "inputs": [],
      "stateMutability": "nonpayable",
      "type": "constructor"
    },
    {
      "anonymous": false,
      "inputs": [
        {
          "indexed": false,
          "internalType": "uint256",
          "name": "amountAdded",
          "type": "uint256"
        },
        {
          "indexed": false,
          "internalType": "uint256",
          "name": "newBalance",
          "type": "uint256"
        },
        {
          "indexed": false,
          "internalType": "address",
          "name": "sender",
          "type": "address"
        }
      ],
      "name": "FundsAdded",
      "type": "event"
    },
    {
      "anonymous": false,
      "inputs": [
        {
          "indexed": false,
          "internalType": "uint256",
          "name": "amount",
          "type": "uint256"
        },
        {
          "indexed": false,
          "internalType": "address",
          "name": "heir",
          "type": "address"
        }
      ],
      "name": "FundsTransferred",
      "type": "event"
    },
    {
      "anonymous": false,
      "inputs": [
        {
          "indexed": true,
          "internalType": "address",
          "name": "sender",
          "type": "address"
        },
        {
          "indexed": true,
          "internalType": "address",
          "name": "heirAddress",
          "type": "address"
        },
        {
          "indexed": false,
          "internalType": "uint256",
          "name": "amount",
          "type": "uint256"
        }
      ],
      "name": "RechargeMatic",
      "type": "event"
    },
    {
      "anonymous": false,
      "inputs": [
        {
          "indexed": true,
          "internalType": "address",
          "name": "sender",
          "type": "address"
        },
        {
          "indexed": true,
          "internalType": "address",
          "name": "heirAddress",
          "type": "address"
        },
        {
          "indexed": false,
          "internalType": "address",
          "name": "nftAddress",
          "type": "address"
        }
      ],
      "name": "RechargeNft",
      "type": "event"
    },
    {
      "anonymous": false,
      "inputs": [
        {
          "indexed": true,
          "internalType": "bytes32",
          "name": "boxhash",
          "type": "bytes32"
        },
        {
          "indexed": true,
          "internalType": "address",
          "name": "user",
          "type": "address"
        }
      ],
      "name": "Register",
      "type": "event"
    },
    {
      "anonymous": false,
      "inputs": [
        {
          "indexed": true,
          "internalType": "address",
          "name": "user",
          "type": "address"
        },
        {
          "indexed": true,
          "internalType": "address",
          "name": "to",
          "type": "address"
        },
        {
          "indexed": false,
          "internalType": "uint256",
          "name": "amount",
          "type": "uint256"
        }
      ],
      "name": "WithdrawSigned",
      "type": "event"
    },
    {
      "inputs": [
        {
          "internalType": "bytes32",
          "name": "",
          "type": "bytes32"
        }
      ],
      "name": "boxhash2safebox",
      "outputs": [
        {
          "internalType": "bytes32",
          "name": "boxhash",
          "type": "bytes32"
        },
        {
          "internalType": "address",
          "name": "user",
          "type": "address"
        },
        {
          "internalType": "uint256",
          "name": "heirToInterval",
          "type": "uint256"
        },
        {
          "internalType": "uint256",
          "name": "lastTimeStamp",
          "type": "uint256"
        },
        {
          "internalType": "address",
          "name": "nftAddress",
          "type": "address"
        }
      ],
      "stateMutability": "view",
      "type": "function"
    },
    {
      "inputs": [
        {
          "internalType": "bytes",
          "name": "",
          "type": "bytes"
        }
      ],
      "name": "checkUpkeep",
      "outputs": [
        {
          "internalType": "bool",
          "name": "upkeepNeeded",
          "type": "bool"
        },
        {
          "internalType": "bytes",
          "name": "performData",
          "type": "bytes"
        }
      ],
      "stateMutability": "view",
      "type": "function"
    },
    {
      "inputs": [],
      "name": "gb",
      "outputs": [
        {
          "internalType": "uint256",
          "name": "",
          "type": "uint256"
        }
      ],
      "stateMutability": "view",
      "type": "function"
    },
    {
      "inputs": [],
      "name": "gb1",
      "outputs": [
        {
          "internalType": "uint256",
          "name": "",
          "type": "uint256"
        }
      ],
      "stateMutability": "view",
      "type": "function"
    },
    {
      "inputs": [],
      "name": "gb2",
      "outputs": [
        {
          "internalType": "uint256",
          "name": "",
          "type": "uint256"
        }
      ],
      "stateMutability": "view",
      "type": "function"
    },
    {
      "inputs": [
        {
          "internalType": "address",
          "name": "owner",
          "type": "address"
        },
        {
          "internalType": "address",
          "name": "heir",
          "type": "address"
        }
      ],
      "name": "getHeirAmountFromOwner",
      "outputs": [
        {
          "internalType": "uint256",
          "name": "",
          "type": "uint256"
        }
      ],
      "stateMutability": "view",
      "type": "function"
    },
    {
      "inputs": [
        {
          "internalType": "bytes32",
          "name": "boxhash",
          "type": "bytes32"
        },
        {
          "internalType": "address",
          "name": "heir",
          "type": "address"
        }
      ],
      "name": "getHeirAmountFromOwner",
      "outputs": [
        {
          "internalType": "uint256",
          "name": "",
          "type": "uint256"
        }
      ],
      "stateMutability": "view",
      "type": "function"
    },
    {
      "inputs": [
        {
          "internalType": "bytes32",
          "name": "boxhash",
          "type": "bytes32"
        },
        {
          "internalType": "address",
          "name": "heir",
          "type": "address"
        }
      ],
      "name": "getHeirWithdrawCounterFromBoxHash",
      "outputs": [
        {
          "internalType": "bool",
          "name": "",
          "type": "bool"
        }
      ],
      "stateMutability": "view",
      "type": "function"
    },
    {
      "inputs": [
        {
          "internalType": "address",
          "name": "owner",
          "type": "address"
        },
        {
          "internalType": "address",
          "name": "heir",
          "type": "address"
        }
      ],
      "name": "getHeirWithdrawCounterFromOwner",
      "outputs": [
        {
          "internalType": "bool",
          "name": "",
          "type": "bool"
        }
      ],
      "stateMutability": "view",
      "type": "function"
    },
    {
      "inputs": [],
      "name": "getMaturedBoxes",
      "outputs": [
        {
          "internalType": "bytes32[]",
          "name": "",
          "type": "bytes32[]"
        }
      ],
      "stateMutability": "view",
      "type": "function"
    },
    {
      "inputs": [
        {
          "internalType": "bytes32",
          "name": "boxhash",
          "type": "bytes32"
        }
      ],
      "name": "getSafeBoxDetailsFromBoxHash",
      "outputs": [
        {
          "internalType": "bytes32",
          "name": "",
          "type": "bytes32"
        },
        {
          "internalType": "uint256",
          "name": "",
          "type": "uint256"
        },
        {
          "internalType": "uint256",
          "name": "",
          "type": "uint256"
        }
      ],
      "stateMutability": "view",
      "type": "function"
    },
    {
      "inputs": [
        {
          "internalType": "address",
          "name": "owner",
          "type": "address"
        }
      ],
      "name": "getSafeBoxDetailsFromOwner",
      "outputs": [
        {
          "internalType": "bytes32",
          "name": "",
          "type": "bytes32"
        },
        {
          "internalType": "uint256",
          "name": "",
          "type": "uint256"
        },
        {
          "internalType": "uint256",
          "name": "",
          "type": "uint256"
        }
      ],
      "stateMutability": "view",
      "type": "function"
    },
    {
      "inputs": [
        {
          "internalType": "bytes32",
          "name": "boxhash",
          "type": "bytes32"
        }
      ],
      "name": "getSafeBoxHeirsFromBoxHash",
      "outputs": [
        {
          "internalType": "address[]",
          "name": "",
          "type": "address[]"
        }
      ],
      "stateMutability": "view",
      "type": "function"
    },
    {
      "inputs": [
        {
          "internalType": "address",
          "name": "owner",
          "type": "address"
        }
      ],
      "name": "getSafeBoxHeirsFromOwner",
      "outputs": [
        {
          "internalType": "address[]",
          "name": "",
          "type": "address[]"
        }
      ],
      "stateMutability": "view",
      "type": "function"
    },
    {
      "inputs": [
        {
          "internalType": "address",
          "name": "owner",
          "type": "address"
        }
      ],
      "name": "getTimeLeftFromOwner",
      "outputs": [
        {
          "internalType": "uint256",
          "name": "",
          "type": "uint256"
        }
      ],
      "stateMutability": "view",
      "type": "function"
    },
    {
      "inputs": [
        {
          "internalType": "bytes32",
          "name": "boxhash",
          "type": "bytes32"
        },
        {
          "internalType": "address",
          "name": "heir",
          "type": "address"
        }
      ],
      "name": "heirIsValid",
      "outputs": [
        {
          "internalType": "bool",
          "name": "",
          "type": "bool"
        }
      ],
      "stateMutability": "view",
      "type": "function"
    },
    {
      "inputs": [],
      "name": "heirToken",
      "outputs": [
        {
          "internalType": "contract HeirToken",
          "name": "",
          "type": "address"
        }
      ],
      "stateMutability": "view",
      "type": "function"
    },
    {
      "inputs": [
        {
          "internalType": "address",
          "name": "",
          "type": "address"
        },
        {
          "internalType": "address",
          "name": "",
          "type": "address"
        },
        {
          "internalType": "uint256",
          "name": "",
          "type": "uint256"
        },
        {
          "internalType": "bytes",
          "name": "",
          "type": "bytes"
        }
      ],
      "name": "onERC721Received",
      "outputs": [
        {
          "internalType": "bytes4",
          "name": "",
          "type": "bytes4"
        }
      ],
      "stateMutability": "nonpayable",
      "type": "function"
    },
    {
      "inputs": [
        {
          "internalType": "bytes",
          "name": "performData",
          "type": "bytes"
        }
      ],
      "name": "performUpkeep",
      "outputs": [],
      "stateMutability": "nonpayable",
      "type": "function"
    },
    {
      "inputs": [
        {
          "internalType": "address",
          "name": "boxOwner",
          "type": "address"
        },
        {
          "internalType": "address",
          "name": "heirAddr",
          "type": "address"
        },
        {
          "internalType": "address",
          "name": "nftAddr",
          "type": "address"
        },
        {
          "internalType": "uint256[]",
          "name": "nftTokenIds",
          "type": "uint256[]"
        }
      ],
      "name": "rechargeWithAddress",
      "outputs": [
        {
          "internalType": "uint256",
          "name": "tokenId",
          "type": "uint256"
        }
      ],
      "stateMutability": "payable",
      "type": "function"
    },
    {
      "inputs": [
        {
          "internalType": "bytes32",
          "name": "boxhash",
          "type": "bytes32"
        },
        {
          "internalType": "uint256[8]",
          "name": "proof",
          "type": "uint256[8]"
        },
        {
          "internalType": "uint256",
          "name": "pswHash",
          "type": "uint256"
        },
        {
          "internalType": "uint256",
          "name": "allHash",
          "type": "uint256"
        },
        {
          "internalType": "uint256",
          "name": "interval",
          "type": "uint256"
        }
      ],
      "name": "register",
      "outputs": [],
      "stateMutability": "nonpayable",
      "type": "function"
    },
    {
      "inputs": [
        {
          "internalType": "uint256",
          "name": "",
          "type": "uint256"
        }
      ],
      "name": "usedProof",
      "outputs": [
        {
          "internalType": "bool",
          "name": "",
          "type": "bool"
        }
      ],
      "stateMutability": "view",
      "type": "function"
    },
    {
      "inputs": [
        {
          "internalType": "address",
          "name": "",
          "type": "address"
        }
      ],
      "name": "user2boxhash",
      "outputs": [
        {
          "internalType": "bytes32",
          "name": "",
          "type": "bytes32"
        }
      ],
      "stateMutability": "view",
      "type": "function"
    },
    {
      "inputs": [
        {
          "internalType": "uint256[8]",
          "name": "proof",
          "type": "uint256[8]"
        },
        {
          "internalType": "uint256",
          "name": "pswHash",
          "type": "uint256"
        },
        {
          "internalType": "uint256",
          "name": "allHash",
          "type": "uint256"
        },
        {
          "internalType": "address",
          "name": "boxOwner",
          "type": "address"
        }
      ],
      "name": "withdrawSignature",
      "outputs": [],
      "stateMutability": "nonpayable",
      "type": "function"
    },
    {
      "stateMutability": "payable",
      "type": "receive"
    }
  ],
  "bytecode": "0x60806040523480156200001157600080fd5b50604051620000209062000154565b604051809103906000f0801580156200003d573d6000803e3d6000fd5b50600380546001600160a01b0319166001600160a01b03929092169190911790556040516200006c9062000162565b604051809103906000f08015801562000089573d6000803e3d6000fd5b50600480546001600160a01b0319166001600160a01b039290921691821781556040805163d0def52160e01b815230928101929092526024820152600d60448201526c23b2b732b9b4b9902a37b5b2b760991b606482015263d0def52190608401602060405180830381600087803b1580156200010557600080fd5b505af11580156200011a573d6000803e3d6000fd5b505050506040513d601f19601f8201168201806040525081019062000140919062000170565b50600080805560018190556002556200018a565b6112b68062002bbc83390190565b611a548062003e7283390190565b6000602082840312156200018357600080fd5b5051919050565b612a22806200019a6000396000f3fe60806040526004361061014e5760003560e01c80636e04ff0d116100b6578063b61afe561161006f578063b61afe56146105c0578063b8df0f42146105f8578063c9eabb3114610618578063d47b8ff71461062b578063e4d3f5c314610641578063f1b852f61461068857600080fd5b80636e04ff0d1461046057806373f7ea881461048e57806387ccdf77146104e257806391519dec146104f8578063a8cdbcef14610518578063a9a90fb51461059e57600080fd5b806329d644dd1161010857806329d644dd146103645780633601f527146103885780633c1bc03a146103a85780634585e33b146103f157806366ccf7ea14610413578063691936aa1461043357600080fd5b80626fe81514610198578063150b7a02146101f65780631767ea0f1461023a5780631b0800731461028f57806323eca841146102e7578063280a07881461031457600080fd5b366101935760408051348152476020820152338183015290517fc6f3fb0fec49e4877342d4625d77a632541f55b7aae0f9d0b34c69b3478706dc9181900360600190a1005b600080fd5b3480156101a457600080fd5b506101e16101b33660046125b1565b60008281526006602081815260408084206001600160a01b0386168552909201905290205460ff1692915050565b60405190151581526020015b60405180910390f35b34801561020257600080fd5b506102216102113660046123cd565b630a85bd0160e11b949350505050565b6040516001600160e01b031990911681526020016101ed565b34801561024657600080fd5b50610274610255366004612598565b6000908152600660205260409020805460048201546005909201549092565b604080519384526020840192909252908201526060016101ed565b34801561029b57600080fd5b506101e16102aa3660046122bf565b6001600160a01b03808316600090815260076020908152604080832054835260068083528184209486168452939093019052205460ff1692915050565b3480156102f357600080fd5b50610307610302366004612598565b6106b8565b6040516101ed9190612722565b34801561032057600080fd5b5061027461032f36600461227e565b6001600160a01b0316600090815260076020908152604080832054835260069091529020805460048201546005909201549092565b34801561037057600080fd5b5061037a60015481565b6040519081526020016101ed565b34801561039457600080fd5b5061037a6103a336600461227e565b610727565b3480156103b457600080fd5b506101e16103c33660046125b1565b60008281526006602090815260408083206001600160a01b0385168452600201909152902054151592915050565b3480156103fd57600080fd5b5061041161040c366004612621565b610760565b005b34801561041f57600080fd5b5061041161042e3660046125d6565b61078f565b34801561043f57600080fd5b5061037a61044e36600461227e565b60076020526000908152604090205481565b34801561046c57600080fd5b5061048061047b366004612621565b610b8c565b6040516101ed92919061282b565b34801561049a57600080fd5b5061037a6104a93660046122bf565b6001600160a01b039182166000908152600760209081526040808320548352600682528083209390941682526002909201909152205490565b3480156104ee57600080fd5b5061037a60025481565b34801561050457600080fd5b50610411610513366004612529565b610bcd565b34801561052457600080fd5b5061056e610533366004612598565b6006602052600090815260409020805460018201546004830154600584015460099094015492936001600160a01b0392831693919290911685565b604080519586526001600160a01b039485166020870152850192909252606084015216608082015260a0016101ed565b3480156105aa57600080fd5b506105b361128b565b6040516101ed919061276f565b3480156105cc57600080fd5b506004546105e0906001600160a01b031681565b6040516001600160a01b0390911681526020016101ed565b34801561060457600080fd5b5061030761061336600461227e565b61138e565b61037a6106263660046122f8565b61140f565b34801561063757600080fd5b5061037a60005481565b34801561064d57600080fd5b5061037a61065c3660046125b1565b60008281526006602090815260408083206001600160a01b038516845260020190915290205492915050565b34801561069457600080fd5b506101e16106a3366004612598565b60086020526000908152604090205460ff1681565b60008181526006602090815260409182902060070180548351818402810184019094528084526060939283018282801561071b57602002820191906000526020600020905b81546001600160a01b031681526001909101906020018083116106fd575b50505050509050919050565b6001600160a01b0381166000908152600760209081526040808320548352600690915281206005015461075a9042612923565b92915050565b60005461076e90600161290b565b600090815561077f82840184612491565b905061078a8161157d565b505050565b6000858152600660209081526040808320338452600790925290912054156108125760405162461bcd60e51b815260206004820152602b60248201527f506563756e69614c6f636b3a3a72656769737465723a206f6e6520757365722060448201526a0dedcca40e6c2cccac4def60ab1b60648201526084015b60405180910390fd5b80541561087c5760405162461bcd60e51b815260206004820152603260248201527f506563756e69614c6f636b3a3a72656769737465723a20626f78686173682068604482015271185cc81899595b881c9959da5cdd195c995960721b6064820152608401610809565b8584336040516020016108ab92919091825260601b6bffffffffffffffffffffffff1916602082015260340190565b604051602081830303815290604052805190602001201461091a5760405162461bcd60e51b8152602060048201526024808201527f506563756e69614c6f636b3a3a72656769737465723a20626f78686173682065604482015263393937b960e11b6064820152608401610809565b60035460408051808201825287518152602080890151818301528251608080820185528a8501518286019081526060808d01518185015290835285518087018752918c0151825260a08c015182850152828401919091528451808601865260c08c0151815260e08c015181850152855191820186528a825260009382019390935280850189905293516308a3cff560e11b81526001600160a01b03909516946311479fea946109cd9493916004016127a7565b60206040518083038186803b1580156109e557600080fd5b505afa1580156109f9573d6000803e3d6000fd5b505050506040513d601f19601f82011682018060405250810190610a1d9190612576565b610a795760405162461bcd60e51b815260206004820152602760248201527f506563756e69614c6f636b3a3a72656769737465723a2076657269667950726f6044820152661bd98819985a5b60ca1b6064820152608401610809565b60008211610ae05760405162461bcd60e51b815260206004820152602e60248201527f506563756e69614c6f636b3a3a72656769737465723a20696e74657276616c2060448201526d63616e6e6f74206265207a65726f60901b6064820152608401610809565b858155600180820180546001600160a01b03191633908117825560048401859055426005808601919091556000918252600760205260408083208b9055815494850182559082527f036b6384b5eca791c62761152d0c79bb0604c104a5fb6f4eb0703f3154bb3db0909301899055905491516001600160a01b03929092169188917f1082cda15f9606da555bb7e9bf4eeee2f8e34abe85d3924bf9bacb716f8feca691a3505050505050565b600060606000610b9a61128b565b90506000815111925080604051602001610bb4919061276f565b6040516020818303038152906040529150509250929050565b336001600160a01b038216811415610c3b5760405162461bcd60e51b815260206004820152603c60248201526000805160206129cd83398151915260448201527f4f776e65722063616e6e6f7420776974686472617720616d6f756e74000000006064820152608401610809565b845160009081526008602052604090205460ff1615610c9d5760405162461bcd60e51b815260206004820152602a60248201526000805160206129cd8339815191526044820152691c1c9bdbd9881d5cd95960b21b6064820152608401610809565b6001600160a01b0382166000908152600760209081526040918290205491518291610ce791889187910191825260601b6bffffffffffffffffffffffff1916602082015260340190565b6040516020818303038152906040528051906020012014610d4e5760405162461bcd60e51b815260206004820152602d60248201526000805160206129cd83398151915260448201526c3839bba430b9b41032b93937b960991b6064820152608401610809565b60008181526006602090815260408083206001600160a01b0386168452600201909152902054610dc55760405162461bcd60e51b815260206004820152602e60248201526000805160206129cd83398151915260448201526d1a195a5c881b9bdd081d985b1a5960921b6064820152608401610809565b60008181526006602052604090208054610e355760405162461bcd60e51b815260206004820152603860248201526000805160206129cd83398151915260448201527f73616665626f78206e6f742072656769737465722079657400000000000000006064820152608401610809565b6000816002016000856001600160a01b03166001600160a01b03168152602001908152602001600020549050610e936040518060400160405280601081526020016f30b6b7bab73a103bb4ba34323930bbb760811b81525082611bd7565b6003546040805180820182528a5181526020808c01518183015282516080810184528c8401518185019081526060808f015190830152815283518085019094526001600160a01b03909416936311479fea939091820190808e6004602002015181526020018e600560088110610f0b57610f0b61296b565b60200201519052905260408051808201909152808d6006602002015181526020018d600760088110610f3f57610f3f61296b565b602002015181525060405180606001604052808d81526020018781526020018c8152506040518563ffffffff1660e01b8152600401610f8194939291906127a7565b60206040518083038186803b158015610f9957600080fd5b505afa158015610fad573d6000803e3d6000fd5b505050506040513d601f19601f82011682018060405250810190610fd19190612576565b61102d5760405162461bcd60e51b815260206004820152602760248201527f506563756e69614c6f636b3a3a77697468647261773a2076657269667950726f6044820152661bd98819985a5b60ca1b6064820152608401610809565b6001600160a01b0384166000908152600383016020526040902054806110a55760405162461bcd60e51b815260206004820152602760248201527f506563756e69614c6f636b3a3a77697468647261773a20746f6b656e206964206044820152661a5b9d985b1a5960ca1b6064820152608401610809565b6004805460405163020604bf60e21b815291820183905230916001600160a01b039091169063081812fc9060240160206040518083038186803b1580156110eb57600080fd5b505afa1580156110ff573d6000803e3d6000fd5b505050506040513d601f19601f8201168201806040525081019061112391906122a2565b6001600160a01b0316146111795760405162461bcd60e51b815260206004820181905260248201527f417070726f76616c20666f72204e465420546f6b656e206e6f7420676976656e6044820152606401610809565b60048054604051630852cd8d60e31b81529182018390526001600160a01b0316906342966c6890602401600060405180830381600087803b1580156111bd57600080fd5b505af11580156111d1573d6000803e3d6000fd5b505050506001600860008b6000600881106111ee576111ee61296b565b6020908102919091015182528181019290925260409081016000908120805494151560ff199586161790556001600160a01b03808a16808352600689019094529082902080549094166001908117909455928601549051919216907f2886d3a939fdefc4ab38e6b3413f0240ecd7a2f0b87072a44f0a177efaedd483906112789086815260200190565b60405180910390a3505050505050505050565b60055460609060009067ffffffffffffffff8111156112ac576112ac612981565b6040519080825280602002602001820160405280156112d5578160200160208202803683370190505b5090506000805b60055481101561137a576000600582815481106112fb576112fb61296b565b90600052602060002001549050600060066000838152602001908152602001600020905080600401548160050154426113349190612923565b10611365578185858151811061134c5761134c61296b565b6020908102919091010152836113618161293a565b9450505b505080806113729061293a565b9150506112dc565b506005548114611388578082525b50919050565b6001600160a01b0381166000908152600760208181526040808420548452600682529283902090910180548351818402810184019094528084526060939283018282801561071b576020028201919060005260206000209081546001600160a01b031681526001909101906020018083116106fd5750505050509050919050565b6000336001600160a01b0386161461148c5760405162461bcd60e51b815260206004820152604660248201526000805160206129ad83398151915260448201527f3a206f6e6c79206f776e65722063616e2061737369676e2066756e647320746f60648201526520686569727360d01b608482015260a401610809565b6001600160a01b0384166114f65760405162461bcd60e51b815260206004820152603a60248201526000805160206129ad83398151915260448201527f3a20486569722063616e6e6f74206265203020616464726573730000000000006064820152608401610809565b836001600160a01b0316856001600160a01b031614156115655760405162461bcd60e51b815260206004820152603660248201526000805160206129ad8339815191526044820152751d1027bbb732b91031b0b73737ba103132903432b4b960511b6064820152608401610809565b346115738686838787611c20565b9695505050505050565b6001805461158a9161290b565b60015560005b8151811015611bc2576000600660008484815181106115b1576115b161296b565b6020026020010151815260200190815260200160002060070180548060200260200160405190810160405280929190818152602001828054801561161e57602002820191906000526020600020905b81546001600160a01b03168152600190910190602001808311611600575b5050505050905060005b8151811015611bad57600660008585815181106116475761164761296b565b6020026020010151815260200190815260200160002060060160008383815181106116745761167461296b565b6020908102919091018101516001600160a01b031682528101919091526040016000205460ff1680156117105750600660008585815181106116b8576116b861296b565b6020026020010151815260200190815260200160002060040154600660008686815181106116e8576116e861296b565b60200260200101518152602001908152602001600020600501544261170d9190612923565b10155b15611b9b5760006006600086868151811061172d5761172d61296b565b60200260200101518152602001908152602001600020600201600084848151811061175a5761175a61296b565b60200260200101516001600160a01b03166001600160a01b03168152602001908152602001600020549050600081111561192e576117d96040518060400160405280600f81526020016e3830bcb4b7339030b6ba16103a379d60891b815250828585815181106117cc576117cc61296b565b6020026020010151611e58565b60008383815181106117ed576117ed61296b565b60200260200101516001600160a01b03166108fc839081150290604051600060405180830381858888f193505050509050801561192c5760006006600088888151811061183c5761183c61296b565b6020026020010151815260200190815260200160002060020160008686815181106118695761186961296b565b60200260200101516001600160a01b03166001600160a01b03168152602001908152602001600020819055506118c760405180604001604052806011815260200170119d5b991cc8151c985b9cd9995c9c9959607a1b815250611e9f565b7fd0107046e9d9bb8140de7842695f5146ef44c52ca4577f579f8c5cba381f13ca828585815181106118fb576118fb61296b565b60200260200101516040516119239291909182526001600160a01b0316602082015260400190565b60405180910390a15b505b60006001600160a01b03166006600087878151811061194f5761194f61296b565b6020908102919091018101518252810191909152604001600020600901546001600160a01b031614611b995760005b600660008787815181106119945761199461296b565b6020026020010151815260200190815260200160002060080160008585815181106119c1576119c161296b565b60200260200101516001600160a01b03166001600160a01b0316815260200190815260200160002080549050811015611b975760066000878781518110611a0a57611a0a61296b565b6020026020010151815260200190815260200160002060090160009054906101000a90046001600160a01b03166001600160a01b03166342842e0e30868681518110611a5857611a5861296b565b6020026020010151600660008b8b81518110611a7657611a7661296b565b602002602001015181526020019081526020016000206008016000898981518110611aa357611aa361296b565b60200260200101516001600160a01b03166001600160a01b031681526020019081526020016000208581548110611adc57611adc61296b565b6000918252602090912001546040516001600160e01b031960e086901b1681526001600160a01b0393841660048201529290911660248301526044820152606401600060405180830381600087803b158015611b3757600080fd5b505af1158015611b4b573d6000803e3d6000fd5b50505050611b856040518060400160405280601581526020017413dddb995c88139195081d1c985b9cd999995c9959605a1b815250611e9f565b80611b8f8161293a565b91505061197e565b505b505b80611ba58161293a565b915050611628565b50508080611bba9061293a565b915050611590565b50600254611bd190600161290b565b60025550565b611c1c8282604051602401611bed929190612861565b60408051601f198184030181529190526020810180516001600160e01b03166309710a9d60e41b179052611ee5565b5050565b6001600160a01b03851660009081526007602052604081205480611c9a5760405162461bcd60e51b815260206004820152603a60248201526000805160206129ad83398151915260448201527f3a2073616665626f78206e6f74207265676973746572207965740000000000006064820152608401610809565b60008181526006602052604090208515611ced57611cba88838989611f06565b611ced60405180604001604052806011815260200170616d6f756e74206465706f73697465643d60781b81525087611bd7565b6001600160a01b03851615801590611d03575060015b15611d745760098101546001600160a01b0316611d38576009810180546001600160a01b0319166001600160a01b0387161790555b611d458883898888611f98565b611d746040518060400160405280600e81526020016d1391951cc819195c1bdcda5d195960921b815250611e9f565b600480546040805163d0def52160e01b81526001600160a01b038b81169482019490945260248101919091526000604482015291169063d0def52190606401602060405180830381600087803b158015611dcd57600080fd5b505af1158015611de1573d6000803e3d6000fd5b505050506040513d601f19601f82011682018060405250810190611e059190612693565b6001600160a01b0388166000818152600384016020908152604082208490556007909401805460018101825590825293902090920180546001600160a01b03191690921790915591505095945050505050565b61078a838383604051602401611e7093929190612883565b60408051601f198184030181529190526020810180516001600160e01b031663e3849f7960e01b179052611ee5565b611ee281604051602401611eb3919061284e565b60408051601f198184030181529190526020810180516001600160e01b031663104c13eb60e21b179052611ee5565b50565b80516a636f6e736f6c652e6c6f67602083016000808483855afa5050505050565b60008381526006602090815260408083206001600160a01b0386168452600281019092528220805491928492611f3d90849061290b565b92505081905550826001600160a01b0316856001600160a01b03167f8f6656c43e8d5d6f44d70129ab4b94c5d5d9502c924bc5de7838cc5181911b1284604051611f8991815260200190565b60405180910390a35050505050565b6000848152600660205260408120905b82518110156121b657306001600160a01b0316846001600160a01b031663081812fc858481518110611fdc57611fdc61296b565b60200260200101516040518263ffffffff1660e01b815260040161200291815260200190565b60206040518083038186803b15801561201a57600080fd5b505afa15801561202e573d6000803e3d6000fd5b505050506040513d601f19601f8201168201806040525081019061205291906122a2565b6001600160a01b0316146120c25760405162461bcd60e51b815260206004820152603160248201527f506563756e69614c6f636b3a3a5f72656368617267654f664e66743a204e465460448201527008185c1c1c9bdd985b081b9bdd081cd95d607a1b6064820152608401610809565b836001600160a01b03166342842e0e88308685815181106120e5576120e561296b565b60209081029190910101516040516001600160e01b031960e086901b1681526001600160a01b0393841660048201529290911660248301526044820152606401600060405180830381600087803b15801561213f57600080fd5b505af1158015612153573d6000803e3d6000fd5b505050506001600160a01b0385166000908152600883016020526040902083518490839081106121855761218561296b565b60209081029190910181015182546001810184556000938452919092200155806121ae8161293a565b915050611fa8565b506040516001600160a01b03848116825280861691908816907f99c28593372d33b0a81876848bd002f9e2e4ec27e23cb79bdb3946e534e9f1f49060200160405180910390a3505050505050565b600082601f83011261221557600080fd5b60405161010080820182811067ffffffffffffffff8211171561223a5761223a612981565b604052818482810187101561224e57600080fd5b600092505b600883101561227357803582526001929092019160209182019101612253565b509195945050505050565b60006020828403121561229057600080fd5b813561229b81612997565b9392505050565b6000602082840312156122b457600080fd5b815161229b81612997565b600080604083850312156122d257600080fd5b82356122dd81612997565b915060208301356122ed81612997565b809150509250929050565b6000806000806080858703121561230e57600080fd5b843561231981612997565b935060208581013561232a81612997565b9350604086013561233a81612997565b9250606086013567ffffffffffffffff81111561235657600080fd5b8601601f8101881361236757600080fd5b803561237a612375826128e7565b6128b6565b8082825284820191508484018b868560051b870101111561239a57600080fd5b600094505b838510156123bd57803583526001949094019391850191850161239f565b50979a9699509497505050505050565b600080600080608085870312156123e357600080fd5b84356123ee81612997565b93506020858101356123ff81612997565b935060408601359250606086013567ffffffffffffffff8082111561242357600080fd5b818801915088601f83011261243757600080fd5b81358181111561244957612449612981565b61245b601f8201601f191685016128b6565b9150808252898482850101111561247157600080fd5b808484018584013760008482840101525080935050505092959194509250565b600060208083850312156124a457600080fd5b823567ffffffffffffffff8111156124bb57600080fd5b8301601f810185136124cc57600080fd5b80356124da612375826128e7565b80828252848201915084840188868560051b87010111156124fa57600080fd5b600094505b8385101561251d5780358352600194909401939185019185016124ff565b50979650505050505050565b600080600080610160858703121561254057600080fd5b61254a8686612204565b93506101008501359250610120850135915061014085013561256b81612997565b939692955090935050565b60006020828403121561258857600080fd5b8151801515811461229b57600080fd5b6000602082840312156125aa57600080fd5b5035919050565b600080604083850312156125c457600080fd5b8235915060208301356122ed81612997565b600080600080600061018086880312156125ef57600080fd5b853594506126008760208801612204565b94979496505050506101208301359261014081013592610160909101359150565b6000806020838503121561263457600080fd5b823567ffffffffffffffff8082111561264c57600080fd5b818501915085601f83011261266057600080fd5b81358181111561266f57600080fd5b86602082850101111561268157600080fd5b60209290920196919550909350505050565b6000602082840312156126a557600080fd5b5051919050565b8060005b60028110156126cf5781518452602093840193909101906001016126b0565b50505050565b6000815180845260005b818110156126fb576020818501810151868301820152016126df565b8181111561270d576000602083870101525b50601f01601f19169290920160200192915050565b6020808252825182820181905260009190848201906040850190845b818110156127635783516001600160a01b03168352928401929184019160010161273e565b50909695505050505050565b6020808252825182820181905260009190848201906040850190845b818110156127635783518352928401929184019160010161278b565b61016081016127b682876126ac565b60408083018660005b60028110156127e6576127d38383516126ac565b91830191602091909101906001016127bf565b505050506127f760c08301856126ac565b61010082018360005b600381101561281f578151835260209283019290910190600101612800565b50505095945050505050565b821515815260406020820152600061284660408301846126d5565b949350505050565b60208152600061229b60208301846126d5565b60408152600061287460408301856126d5565b90508260208301529392505050565b60608152600061289660608301866126d5565b6020830194909452506001600160a01b0391909116604090910152919050565b604051601f8201601f1916810167ffffffffffffffff811182821017156128df576128df612981565b604052919050565b600067ffffffffffffffff82111561290157612901612981565b5060051b60200190565b6000821982111561291e5761291e612955565b500190565b60008282101561293557612935612955565b500390565b600060001982141561294e5761294e612955565b5060010190565b634e487b7160e01b600052601160045260246000fd5b634e487b7160e01b600052603260045260246000fd5b634e487b7160e01b600052604160045260246000fd5b6001600160a01b0381168114611ee257600080fdfe506563756e69614c6f636b3a3a72656368617267655769746841646472657373506563756e69614c6f636b3a3a77697468647261775369676e61747572653a20a2646970667358221220723ace7fd9375e03411f81999c2c373df62c64fe65a6f5e4c1039f99a252bbd964736f6c63430008070033608060405234801561001057600080fd5b50611296806100206000396000f3fe608060405234801561001057600080fd5b506004361061002b5760003560e01c806311479fea14610030575b600080fd5b61004361003e36600461103a565b610057565b604051901515815260200160405180910390f35b6000610061610ea8565b60408051808201825287518152602080890151818301529083528151608080820184528851518285019081528951840151606080850191909152908352845180860186528a8501805151825251850151818601528385015285840192909252835180850185528851815288840151818501528585015283516003808252918101909452600093929091908301908036833701905050905060005b600381101561014a5784816003811061011657610116611234565b602002015182828151811061012d5761012d611234565b602090810291909101015280610142816111e1565b9150506100fb565b506101558183610173565b6101645760019250505061016b565b6000925050505b949350505050565b60007f30644e72e131a029b85045b68181585d2833e84879b9709143e1f593f00000018161019f61036a565b9050806080015151855160016101b59190611193565b146101fc5760405162461bcd60e51b81526020600482015260126024820152711d995c9a599a595c8b5898590b5a5b9c1d5d60721b60448201526064015b60405180910390fd5b604080518082019091526000808252602082018190525b86518110156102ed578387828151811061022f5761022f611234565b6020026020010151106102845760405162461bcd60e51b815260206004820152601f60248201527f76657269666965722d6774652d736e61726b2d7363616c61722d6669656c640060448201526064016101f3565b6102d9826102d4856080015184600161029d9190611193565b815181106102ad576102ad611234565b60200260200101518a85815181106102c7576102c7611234565b60200260200101516107f3565b61088f565b9150806102e5816111e1565b915050610213565b5061031681836080015160008151811061030957610309611234565b602002602001015161088f565b905061034c6103288660000151610927565b8660200151846000015185602001518587604001518b6040015189606001516109c6565b61035c5760019350505050610364565b600093505050505b92915050565b610372610ef9565b6040805180820182527f0f6a9292f44e0c5fd56723e16aa2d2886553bbe43de550a50fd25364395a831581527f2f9ce71de54ad21b602c1a43eab00d11cc53a2b8752d9b0b2df634d87464fa6b6020808301919091529083528151608080820184527f15fdcc142479f55492db36142b172560437a29b9e945db4319241f55ee4e343e8285019081527f2fa5aa0478303739373560a2e2424bd3f4dfb91dc35deacb52d00989300991cb606080850191909152908352845180860186527f02d6bf0a28b48a63787457a69b8313c614a6568b4cce18395154fe8f42d4daed81527f16207b64d553bbc5277313c8e8a14977326d34efc78531ee60b8bcaa8bae3465818601528385015285840192909252835180820185527f198e9393920d483a7260bfb731fb5d25f1aa493335a9e71297e485b7aef312c28186019081527f1800deef121f1e76426a00665e5c4479674322d4f75edadd46debd5cd992f6ed828501528152845180860186527f090689d0585ff075ec9e99ad690c3395bc4b313370b38ef355acdadcd122975b81527f12c85ea5db8c6deb4aab71808dcb408fe3d1e7690c43d37b4ce6cc0166fa7daa818601528185015285850152835190810184527f2eeefc3a354cd850b6947daa861a817ca411369f3790270a1976a5e7008426e98185019081527f1c16b6153e3e5304be126405deba45a7eece2309f53229f4bdf7b7b9c03164c8828401528152835180850185527f2007c6fff3e2cdf709d69127dc92744614627d041e211a86d0466287d554029081527f1b548b0ee40dec780ca8a21b8f11bc25601fe0a63899587ad7993a943b7833318185015281840152908401528151600480825260a08201909352919082015b60408051808201909152600080825260208201528152602001906001900390816105ed57505060808201908152604080518082019091527f2e32c9e22bed833171a84a4218fac8dc39b8f4363ce6bf3eae71c3e85b17e5ea81527f0a6ea17084eec888c6c73e2f9c5e9c6487a5d1f61fbf72b0913b0c5961f7d76d60208201529051805160009061068057610680611234565b602002602001018190525060405180604001604052807f1c8de427f4226ccfdfac17d880785fddd6947df69b744cd48a675d03e32f852d81526020017f07a3b41ed49144e349ac2cd1e105a757be1d51c1a2af575324d78d62071de44281525081608001516001815181106106f7576106f7611234565b602002602001018190525060405180604001604052807f1c649d0adb3e095b29de0cd602d8567fffcb5a053c5a05454b1946bba81a70b781526020017f19621312f8fe56f3d691d36528d987a434bdb560df990dc13838adf5836b28c2815250816080015160028151811061076e5761076e611234565b602002602001018190525060405180604001604052807f2db18aac3e08a0a8dbd8dde7c02657a046d0bbc81374e0a03aec0ced801ed32081526020017f1fd2bc2305899ced683425bb06a702b6c07327b68cd0a22701754c04bb050a1381525081608001516003815181106107e5576107e5611234565b602002602001018190525090565b604080518082019091526000808252602082015261080f610f4a565b835181526020808501519082015260408101839052600060608360808460076107d05a03fa905080801561084257610844565bfe5b50806108875760405162461bcd60e51b81526020600482015260126024820152711c185a5c9a5b99cb5b5d5b0b59985a5b195960721b60448201526064016101f3565b505092915050565b60408051808201909152600080825260208201526108ab610f68565b8351815260208085015181830152835160408301528301516060808301919091526000908360c08460066107d05a03fa90508080156108425750806108875760405162461bcd60e51b81526020600482015260126024820152711c185a5c9a5b99cb5859190b59985a5b195960721b60448201526064016101f3565b604080518082019091526000808252602082015281517f30644e72e131a029b85045b68181585d97816a916871ca8d3c208c16d87cfd479015801561096e57506020830151155b1561098e5750506040805180820190915260008082526020820152919050565b6040518060400160405280846000015181526020018285602001516109b391906111fc565b6109bd90846111ca565b90529392505050565b60408051600480825260a08201909252600091829190816020015b60408051808201909152600080825260208201528152602001906001900390816109e157505060408051600480825260a0820190925291925060009190602082015b610a2b610f86565b815260200190600190039081610a235790505090508a82600081518110610a5457610a54611234565b60200260200101819052508882600181518110610a7357610a73611234565b60200260200101819052508682600281518110610a9257610a92611234565b60200260200101819052508482600381518110610ab157610ab1611234565b60200260200101819052508981600081518110610ad057610ad0611234565b60200260200101819052508781600181518110610aef57610aef611234565b60200260200101819052508581600281518110610b0e57610b0e611234565b60200260200101819052508381600381518110610b2d57610b2d611234565b6020026020010181905250610b428282610b51565b9b9a5050505050505050505050565b60008151835114610b9d5760405162461bcd60e51b81526020600482015260166024820152751c185a5c9a5b99cb5b195b99dd1a1ccb59985a5b195960521b60448201526064016101f3565b82516000610bac8260066111ab565b905060008167ffffffffffffffff811115610bc957610bc961124a565b604051908082528060200260200182016040528015610bf2578160200160208202803683370190505b50905060005b83811015610e2d57868181518110610c1257610c12611234565b60200260200101516000015182826006610c2c91906111ab565b610c37906000611193565b81518110610c4757610c47611234565b602002602001018181525050868181518110610c6557610c65611234565b60200260200101516020015182826006610c7f91906111ab565b610c8a906001611193565b81518110610c9a57610c9a611234565b602002602001018181525050858181518110610cb857610cb8611234565b6020908102919091010151515182610cd18360066111ab565b610cdc906002611193565b81518110610cec57610cec611234565b602002602001018181525050858181518110610d0a57610d0a611234565b60209081029190910181015151015182610d258360066111ab565b610d30906003611193565b81518110610d4057610d40611234565b602002602001018181525050858181518110610d5e57610d5e611234565b602002602001015160200151600060028110610d7c57610d7c611234565b602002015182610d8d8360066111ab565b610d98906004611193565b81518110610da857610da8611234565b602002602001018181525050858181518110610dc657610dc6611234565b602002602001015160200151600160028110610de457610de4611234565b602002015182610df58360066111ab565b610e00906005611193565b81518110610e1057610e10611234565b602090810291909101015280610e25816111e1565b915050610bf8565b50610e36610fa6565b6000602082602086026020860160086107d05a03fa9050808015610842575080610e9a5760405162461bcd60e51b81526020600482015260156024820152741c185a5c9a5b99cb5bdc18dbd9194b59985a5b1959605a1b60448201526064016101f3565b505115159695505050505050565b6040805160a081019091526000606082018181526080830191909152815260208101610ed2610f86565b8152602001610ef4604051806040016040528060008152602001600081525090565b905290565b6040805160e08101909152600060a0820181815260c0830191909152815260208101610f23610f86565b8152602001610f30610f86565b8152602001610f3d610f86565b8152602001606081525090565b60405180606001604052806003906020820280368337509192915050565b60405180608001604052806004906020820280368337509192915050565b6040518060400160405280610f99610fc4565b8152602001610ef4610fc4565b60405180602001604052806001906020820280368337509192915050565b60405180604001604052806002906020820280368337509192915050565b600082601f830112610ff357600080fd5b610ffb61112b565b80838560408601111561100d57600080fd5b60005b600281101561102f578135845260209384019390910190600101611010565b509095945050505050565b60008060008061016080868803121561105257600080fd5b61105c8787610fe2565b9450604087605f88011261106f57600080fd5b61107761112b565b8082890160c08a018b81111561108c57600080fd5b60005b60028110156110b6576110a28d84610fe2565b85526020909401939185019160010161108f565b508298506110c48c82610fe2565b975050505050508661011f8701126110db57600080fd5b6110e3611162565b80610100880189848a0111156110f857600080fd5b600093505b600384101561111d578035835260019390930192602092830192016110fd565b509598949750929550505050565b6040805190810167ffffffffffffffff8111828210171561115c57634e487b7160e01b600052604160045260246000fd5b60405290565b6040516060810167ffffffffffffffff8111828210171561115c57634e487b7160e01b600052604160045260246000fd5b600082198211156111a6576111a661121e565b500190565b60008160001904831182151516156111c5576111c561121e565b500290565b6000828210156111dc576111dc61121e565b500390565b60006000198214156111f5576111f561121e565b5060010190565b60008261121957634e487b7160e01b600052601260045260246000fd5b500690565b634e487b7160e01b600052601160045260246000fd5b634e487b7160e01b600052603260045260246000fd5b634e487b7160e01b600052604160045260246000fdfea2646970667358221220e0bd9ed3edb9a70b0d43292cff3a8dc9a0f4da12cb43ffbe58c2808b52c4613d64736f6c6343000807003360806040523480156200001157600080fd5b50604051806040016040528060048152602001632432b4b960e11b815250604051806040016040528060048152602001632422a4a960e11b815250816000908051906020019062000064929190620000f3565b5080516200007a906001906020840190620000f3565b50505062000097620000916200009d60201b60201c565b620000a1565b620001d6565b3390565b600780546001600160a01b038381166001600160a01b0319831681179093556040519116919082907f8be0079c531659141344cd1fd0a4f28419497f9722a3daafe3b4186f6b6457e090600090a35050565b828054620001019062000199565b90600052602060002090601f01602090048101928262000125576000855562000170565b82601f106200014057805160ff191683800117855562000170565b8280016001018555821562000170579182015b828111156200017057825182559160200191906001019062000153565b506200017e92915062000182565b5090565b5b808211156200017e576000815560010162000183565b600181811c90821680620001ae57607f821691505b60208210811415620001d057634e487b7160e01b600052602260045260246000fd5b50919050565b61186e80620001e66000396000f3fe608060405234801561001057600080fd5b50600436106101165760003560e01c8063715018a6116100a2578063b88d4fde11610071578063b88d4fde14610239578063c87b56dd1461024c578063d0def5211461025f578063e985e9c514610272578063f2fde38b146102ae57600080fd5b8063715018a6146102055780638da5cb5b1461020d57806395d89b411461021e578063a22cb4651461022657600080fd5b806323b872dd116100e957806323b872dd1461019857806342842e0e146101ab57806342966c68146101be5780636352211e146101d157806370a08231146101e457600080fd5b806301ffc9a71461011b57806306fdde0314610143578063081812fc14610158578063095ea7b314610183575b600080fd5b61012e610129366004611553565b6102c1565b60405190151581526020015b60405180910390f35b61014b610313565b60405161013a919061163e565b61016b61016636600461158d565b6103a5565b6040516001600160a01b03909116815260200161013a565b610196610191366004611529565b6103cc565b005b6101966101a63660046113d3565b6104e7565b6101966101b93660046113d3565b610518565b6101966101cc36600461158d565b610533565b61016b6101df36600461158d565b61053f565b6101f76101f2366004611385565b61059f565b60405190815260200161013a565b610196610625565b6007546001600160a01b031661016b565b61014b610639565b61019661023436600461148b565b610648565b61019661024736600461140f565b610657565b61014b61025a36600461158d565b61068f565b6101f761026d3660046114c7565b6107a0565b61012e6102803660046113a0565b6001600160a01b03918216600090815260056020908152604080832093909416825291909152205460ff1690565b6101966102bc366004611385565b6107e0565b60006001600160e01b031982166380ac58cd60e01b14806102f257506001600160e01b03198216635b5e139f60e01b145b8061030d57506301ffc9a760e01b6001600160e01b03198316145b92915050565b60606000805461032290611760565b80601f016020809104026020016040519081016040528092919081815260200182805461034e90611760565b801561039b5780601f106103705761010080835404028352916020019161039b565b820191906000526020600020905b81548152906001019060200180831161037e57829003601f168201915b5050505050905090565b60006103b082610856565b506000908152600460205260409020546001600160a01b031690565b60006103d78261053f565b9050806001600160a01b0316836001600160a01b0316141561044a5760405162461bcd60e51b815260206004820152602160248201527f4552433732313a20617070726f76616c20746f2063757272656e74206f776e656044820152603960f91b60648201526084015b60405180910390fd5b336001600160a01b038216148061046657506104668133610280565b6104d85760405162461bcd60e51b815260206004820152603e60248201527f4552433732313a20617070726f76652063616c6c6572206973206e6f7420746f60448201527f6b656e206f776e6572206e6f7220617070726f76656420666f7220616c6c00006064820152608401610441565b6104e283836108b5565b505050565b6104f13382610923565b61050d5760405162461bcd60e51b8152600401610441906116a3565b6104e28383836109a1565b6104e283838360405180602001604052806000815250610657565b61053c81610b3d565b50565b6000818152600260205260408120546001600160a01b03168061030d5760405162461bcd60e51b8152602060048201526018602482015277115490cdcc8c4e881a5b9d985b1a59081d1bdad95b88125160421b6044820152606401610441565b60006001600160a01b0382166106095760405162461bcd60e51b815260206004820152602960248201527f4552433732313a2061646472657373207a65726f206973206e6f7420612076616044820152683634b21037bbb732b960b91b6064820152608401610441565b506001600160a01b031660009081526003602052604090205490565b61062d610b7d565b6106376000610bd7565b565b60606001805461032290611760565b610653338383610c29565b5050565b6106613383610923565b61067d5760405162461bcd60e51b8152600401610441906116a3565b61068984848484610cf8565b50505050565b606061069a82610856565b600082815260066020526040812080546106b390611760565b80601f01602080910402602001604051908101604052809291908181526020018280546106df90611760565b801561072c5780601f106107015761010080835404028352916020019161072c565b820191906000526020600020905b81548152906001019060200180831161070f57829003601f168201915b50505050509050600061074a60408051602081019091526000815290565b905080516000141561075d575092915050565b81511561078f5780826040516020016107779291906115d2565b60405160208183030381529060405292505050919050565b61079884610d2b565b949350505050565b60006107aa610b7d565b60006107b560085490565b90506107c18482610d9e565b6107cb8184610ee0565b6107d9600880546001019055565b9392505050565b6107e8610b7d565b6001600160a01b03811661084d5760405162461bcd60e51b815260206004820152602660248201527f4f776e61626c653a206e6577206f776e657220697320746865207a65726f206160448201526564647265737360d01b6064820152608401610441565b61053c81610bd7565b6000818152600260205260409020546001600160a01b031661053c5760405162461bcd60e51b8152602060048201526018602482015277115490cdcc8c4e881a5b9d985b1a59081d1bdad95b88125160421b6044820152606401610441565b600081815260046020526040902080546001600160a01b0319166001600160a01b03841690811790915581906108ea8261053f565b6001600160a01b03167f8c5be1e5ebec7d5bd14f71427d1e84f3dd0314c0f7b2291e5b200ac8c7c3b92560405160405180910390a45050565b60008061092f8361053f565b9050806001600160a01b0316846001600160a01b0316148061097657506001600160a01b0380821660009081526005602090815260408083209388168352929052205460ff165b806107985750836001600160a01b031661098f846103a5565b6001600160a01b031614949350505050565b826001600160a01b03166109b48261053f565b6001600160a01b031614610a185760405162461bcd60e51b815260206004820152602560248201527f4552433732313a207472616e736665722066726f6d20696e636f72726563742060448201526437bbb732b960d91b6064820152608401610441565b6001600160a01b038216610a7a5760405162461bcd60e51b8152602060048201526024808201527f4552433732313a207472616e7366657220746f20746865207a65726f206164646044820152637265737360e01b6064820152608401610441565b610a856000826108b5565b6001600160a01b0383166000908152600360205260408120805460019290610aae90849061171d565b90915550506001600160a01b0382166000908152600360205260408120805460019290610adc9084906116f1565b909155505060008181526002602052604080822080546001600160a01b0319166001600160a01b0386811691821790925591518493918716917fddf252ad1be2c89b69c2b068fc378daa952ba7f163c4a11628f55a4df523b3ef91a4505050565b610b4681610f7a565b60008181526006602052604090208054610b5f90611760565b15905061053c57600081815260066020526040812061053c91611220565b6007546001600160a01b031633146106375760405162461bcd60e51b815260206004820181905260248201527f4f776e61626c653a2063616c6c6572206973206e6f7420746865206f776e65726044820152606401610441565b600780546001600160a01b038381166001600160a01b0319831681179093556040519116919082907f8be0079c531659141344cd1fd0a4f28419497f9722a3daafe3b4186f6b6457e090600090a35050565b816001600160a01b0316836001600160a01b03161415610c8b5760405162461bcd60e51b815260206004820152601960248201527f4552433732313a20617070726f766520746f2063616c6c6572000000000000006044820152606401610441565b6001600160a01b03838116600081815260056020908152604080832094871680845294825291829020805460ff191686151590811790915591519182527f17307eab39ab6107e8899845ad3d59bd9653f200f220920489ca2b5937696c31910160405180910390a3505050565b610d038484846109a1565b610d0f84848484611015565b6106895760405162461bcd60e51b815260040161044190611651565b6060610d3682610856565b6000610d4d60408051602081019091526000815290565b90506000815111610d6d57604051806020016040528060008152506107d9565b80610d7784611122565b604051602001610d889291906115d2565b6040516020818303038152906040529392505050565b6001600160a01b038216610df45760405162461bcd60e51b815260206004820181905260248201527f4552433732313a206d696e7420746f20746865207a65726f20616464726573736044820152606401610441565b6000818152600260205260409020546001600160a01b031615610e595760405162461bcd60e51b815260206004820152601c60248201527f4552433732313a20746f6b656e20616c7265616479206d696e746564000000006044820152606401610441565b6001600160a01b0382166000908152600360205260408120805460019290610e829084906116f1565b909155505060008181526002602052604080822080546001600160a01b0319166001600160a01b03861690811790915590518392907fddf252ad1be2c89b69c2b068fc378daa952ba7f163c4a11628f55a4df523b3ef908290a45050565b6000828152600260205260409020546001600160a01b0316610f5b5760405162461bcd60e51b815260206004820152602e60248201527f45524337323155524953746f726167653a2055524920736574206f66206e6f6e60448201526d32bc34b9ba32b73a103a37b5b2b760911b6064820152608401610441565b600082815260066020908152604090912082516104e29284019061125a565b6000610f858261053f565b9050610f926000836108b5565b6001600160a01b0381166000908152600360205260408120805460019290610fbb90849061171d565b909155505060008281526002602052604080822080546001600160a01b0319169055518391906001600160a01b038416907fddf252ad1be2c89b69c2b068fc378daa952ba7f163c4a11628f55a4df523b3ef908390a45050565b60006001600160a01b0384163b1561111757604051630a85bd0160e11b81526001600160a01b0385169063150b7a0290611059903390899088908890600401611601565b602060405180830381600087803b15801561107357600080fd5b505af19250505080156110a3575060408051601f3d908101601f191682019092526110a091810190611570565b60015b6110fd573d8080156110d1576040519150601f19603f3d011682016040523d82523d6000602084013e6110d6565b606091505b5080516110f55760405162461bcd60e51b815260040161044190611651565b805181602001fd5b6001600160e01b031916630a85bd0160e11b149050610798565b506001949350505050565b6060816111465750506040805180820190915260018152600360fc1b602082015290565b8160005b8115611170578061115a8161179b565b91506111699050600a83611709565b915061114a565b60008167ffffffffffffffff81111561118b5761118b61180c565b6040519080825280601f01601f1916602001820160405280156111b5576020820181803683370190505b5090505b8415610798576111ca60018361171d565b91506111d7600a866117b6565b6111e29060306116f1565b60f81b8183815181106111f7576111f76117f6565b60200101906001600160f81b031916908160001a905350611219600a86611709565b94506111b9565b50805461122c90611760565b6000825580601f1061123c575050565b601f01602090049060005260206000209081019061053c91906112de565b82805461126690611760565b90600052602060002090601f01602090048101928261128857600085556112ce565b82601f106112a157805160ff19168380011785556112ce565b828001600101855582156112ce579182015b828111156112ce5782518255916020019190600101906112b3565b506112da9291506112de565b5090565b5b808211156112da57600081556001016112df565b600067ffffffffffffffff8084111561130e5761130e61180c565b604051601f8501601f19908116603f011681019082821181831017156113365761133661180c565b8160405280935085815286868601111561134f57600080fd5b858560208301376000602087830101525050509392505050565b80356001600160a01b038116811461138057600080fd5b919050565b60006020828403121561139757600080fd5b6107d982611369565b600080604083850312156113b357600080fd5b6113bc83611369565b91506113ca60208401611369565b90509250929050565b6000806000606084860312156113e857600080fd5b6113f184611369565b92506113ff60208501611369565b9150604084013590509250925092565b6000806000806080858703121561142557600080fd5b61142e85611369565b935061143c60208601611369565b925060408501359150606085013567ffffffffffffffff81111561145f57600080fd5b8501601f8101871361147057600080fd5b61147f878235602084016112f3565b91505092959194509250565b6000806040838503121561149e57600080fd5b6114a783611369565b9150602083013580151581146114bc57600080fd5b809150509250929050565b600080604083850312156114da57600080fd5b6114e383611369565b9150602083013567ffffffffffffffff8111156114ff57600080fd5b8301601f8101851361151057600080fd5b61151f858235602084016112f3565b9150509250929050565b6000806040838503121561153c57600080fd5b61154583611369565b946020939093013593505050565b60006020828403121561156557600080fd5b81356107d981611822565b60006020828403121561158257600080fd5b81516107d981611822565b60006020828403121561159f57600080fd5b5035919050565b600081518084526115be816020860160208601611734565b601f01601f19169290920160200192915050565b600083516115e4818460208801611734565b8351908301906115f8818360208801611734565b01949350505050565b6001600160a01b0385811682528416602082015260408101839052608060608201819052600090611634908301846115a6565b9695505050505050565b6020815260006107d960208301846115a6565b60208082526032908201527f4552433732313a207472616e7366657220746f206e6f6e20455243373231526560408201527131b2b4bb32b91034b6b83632b6b2b73a32b960711b606082015260800190565b6020808252602e908201527f4552433732313a2063616c6c6572206973206e6f7420746f6b656e206f776e6560408201526d1c881b9bdc88185c1c1c9bdd995960921b606082015260800190565b60008219821115611704576117046117ca565b500190565b600082611718576117186117e0565b500490565b60008282101561172f5761172f6117ca565b500390565b60005b8381101561174f578181015183820152602001611737565b838111156106895750506000910152565b600181811c9082168061177457607f821691505b6020821081141561179557634e487b7160e01b600052602260045260246000fd5b50919050565b60006000198214156117af576117af6117ca565b5060010190565b6000826117c5576117c56117e0565b500690565b634e487b7160e01b600052601160045260246000fd5b634e487b7160e01b600052601260045260246000fd5b634e487b7160e01b600052603260045260246000fd5b634e487b7160e01b600052604160045260246000fd5b6001600160e01b03198116811461053c57600080fdfea2646970667358221220ec081d61bd65d239650c28564dadbbc1f9b7d2b4ce9fb7a2217cf1a8e7ab032464736f6c63430008070033",
  "linkReferences": {},
  "deployedLinkReferences": {}
}