{
  "_format": "hh-sol-artifact-1",
  "contractName": "PecuniaLock",
  "sourceName": "contracts/PecuniaLock.sol",
  "abi": [
    {
      "inputs": [],
      "stateMutability": "nonpayable",
      "type": "constructor"
    },
    {
      "anonymous": false,
      "inputs": [
        {
          "indexed": true,
          "internalType": "address",
          "name": "owner",
          "type": "address"
        }
      ],
      "name": "BoxCanceled",
      "type": "event"
    },
    {
      "anonymous": false,
      "inputs": [
        {
          "indexed": false,
          "internalType": "uint256",
          "name": "amountAdded",
          "type": "uint256"
        },
        {
          "indexed": false,
          "internalType": "uint256",
          "name": "newBalance",
          "type": "uint256"
        },
        {
          "indexed": false,
          "internalType": "address",
          "name": "sender",
          "type": "address"
        }
      ],
      "name": "FundsAdded",
      "type": "event"
    },
    {
      "anonymous": false,
      "inputs": [
        {
          "indexed": false,
          "internalType": "uint256",
          "name": "amount",
          "type": "uint256"
        },
        {
          "indexed": false,
          "internalType": "address",
          "name": "heir",
          "type": "address"
        }
      ],
      "name": "FundsTransferred",
      "type": "event"
    },
    {
      "anonymous": false,
      "inputs": [
        {
          "indexed": true,
          "internalType": "address",
          "name": "sender",
          "type": "address"
        },
        {
          "indexed": true,
          "internalType": "address",
          "name": "heirAddress",
          "type": "address"
        },
        {
          "indexed": false,
          "internalType": "uint256",
          "name": "amount",
          "type": "uint256"
        }
      ],
      "name": "RechargeMatic",
      "type": "event"
    },
    {
      "anonymous": false,
      "inputs": [
        {
          "indexed": true,
          "internalType": "address",
          "name": "sender",
          "type": "address"
        },
        {
          "indexed": true,
          "internalType": "address",
          "name": "heirAddress",
          "type": "address"
        },
        {
          "indexed": false,
          "internalType": "address",
          "name": "nftAddress",
          "type": "address"
        }
      ],
      "name": "RechargeNft",
      "type": "event"
    },
    {
      "anonymous": false,
      "inputs": [
        {
          "indexed": true,
          "internalType": "bytes32",
          "name": "boxhash",
          "type": "bytes32"
        },
        {
          "indexed": true,
          "internalType": "address",
          "name": "owner",
          "type": "address"
        }
      ],
      "name": "Register",
      "type": "event"
    },
    {
      "anonymous": false,
      "inputs": [
        {
          "indexed": true,
          "internalType": "address",
          "name": "owner",
          "type": "address"
        },
        {
          "indexed": true,
          "internalType": "address",
          "name": "to",
          "type": "address"
        },
        {
          "indexed": false,
          "internalType": "uint256",
          "name": "amount",
          "type": "uint256"
        }
      ],
      "name": "WithdrawSigned",
      "type": "event"
    },
    {
      "inputs": [
        {
          "internalType": "bytes32",
          "name": "",
          "type": "bytes32"
        }
      ],
      "name": "boxhash2safebox",
      "outputs": [
        {
          "internalType": "bytes32",
          "name": "boxhash",
          "type": "bytes32"
        },
        {
          "internalType": "uint64",
          "name": "numberOfPayments",
          "type": "uint64"
        },
        {
          "internalType": "uint64",
          "name": "paymentsDoneToHeir",
          "type": "uint64"
        },
        {
          "internalType": "address",
          "name": "user",
          "type": "address"
        },
        {
          "internalType": "address",
          "name": "nftAddress",
          "type": "address"
        },
        {
          "internalType": "uint256",
          "name": "heirToInterval",
          "type": "uint256"
        },
        {
          "internalType": "uint256",
          "name": "timeAtWhichPaymentStarts",
          "type": "uint256"
        },
        {
          "internalType": "uint256",
          "name": "totalDeposit",
          "type": "uint256"
        },
        {
          "internalType": "uint256",
          "name": "lastPaymentTime",
          "type": "uint256"
        },
        {
          "internalType": "uint256",
          "name": "timeIntBetweenPayments",
          "type": "uint256"
        }
      ],
      "stateMutability": "view",
      "type": "function"
    },
    {
      "inputs": [],
      "name": "cancelBoxAndTransferFundsToOwner",
      "outputs": [],
      "stateMutability": "nonpayable",
      "type": "function"
    },
    {
      "inputs": [
        {
          "internalType": "bytes",
          "name": "",
          "type": "bytes"
        }
      ],
      "name": "checkUpkeep",
      "outputs": [
        {
          "internalType": "bool",
          "name": "upkeepNeeded",
          "type": "bool"
        },
        {
          "internalType": "bytes",
          "name": "performData",
          "type": "bytes"
        }
      ],
      "stateMutability": "view",
      "type": "function"
    },
    {
      "inputs": [],
      "name": "gb",
      "outputs": [
        {
          "internalType": "uint256",
          "name": "",
          "type": "uint256"
        }
      ],
      "stateMutability": "view",
      "type": "function"
    },
    {
      "inputs": [],
      "name": "gb1",
      "outputs": [
        {
          "internalType": "uint256",
          "name": "",
          "type": "uint256"
        }
      ],
      "stateMutability": "view",
      "type": "function"
    },
    {
      "inputs": [],
      "name": "gb2",
      "outputs": [
        {
          "internalType": "uint256",
          "name": "",
          "type": "uint256"
        }
      ],
      "stateMutability": "view",
      "type": "function"
    },
    {
      "inputs": [
        {
          "internalType": "address",
          "name": "owner",
          "type": "address"
        },
        {
          "internalType": "address",
          "name": "heir",
          "type": "address"
        }
      ],
      "name": "getHeirAmountFromOwner",
      "outputs": [
        {
          "internalType": "uint256",
          "name": "",
          "type": "uint256"
        }
      ],
      "stateMutability": "view",
      "type": "function"
    },
    {
      "inputs": [
        {
          "internalType": "bytes32",
          "name": "boxhash",
          "type": "bytes32"
        },
        {
          "internalType": "address",
          "name": "heir",
          "type": "address"
        }
      ],
      "name": "getHeirAmountFromOwner",
      "outputs": [
        {
          "internalType": "uint256",
          "name": "",
          "type": "uint256"
        }
      ],
      "stateMutability": "view",
      "type": "function"
    },
    {
      "inputs": [
        {
          "internalType": "bytes32",
          "name": "boxhash",
          "type": "bytes32"
        },
        {
          "internalType": "address",
          "name": "heir",
          "type": "address"
        }
      ],
      "name": "getHeirWithdrawCounterFromBoxHash",
      "outputs": [
        {
          "internalType": "bool",
          "name": "",
          "type": "bool"
        }
      ],
      "stateMutability": "view",
      "type": "function"
    },
    {
      "inputs": [
        {
          "internalType": "address",
          "name": "owner",
          "type": "address"
        },
        {
          "internalType": "address",
          "name": "heir",
          "type": "address"
        }
      ],
      "name": "getHeirWithdrawCounterFromOwner",
      "outputs": [
        {
          "internalType": "bool",
          "name": "",
          "type": "bool"
        }
      ],
      "stateMutability": "view",
      "type": "function"
    },
    {
      "inputs": [],
      "name": "getMaturedBoxes",
      "outputs": [
        {
          "internalType": "bytes32[]",
          "name": "",
          "type": "bytes32[]"
        }
      ],
      "stateMutability": "view",
      "type": "function"
    },
    {
      "inputs": [
        {
          "internalType": "bytes32",
          "name": "boxhash",
          "type": "bytes32"
        }
      ],
      "name": "getSafeBoxDetailsFromBoxHash",
      "outputs": [
        {
          "internalType": "bytes32",
          "name": "",
          "type": "bytes32"
        },
        {
          "internalType": "uint256",
          "name": "",
          "type": "uint256"
        },
        {
          "internalType": "uint256",
          "name": "",
          "type": "uint256"
        }
      ],
      "stateMutability": "view",
      "type": "function"
    },
    {
      "inputs": [
        {
          "internalType": "address",
          "name": "owner",
          "type": "address"
        }
      ],
      "name": "getSafeBoxDetailsFromOwner",
      "outputs": [
        {
          "internalType": "bytes32",
          "name": "",
          "type": "bytes32"
        },
        {
          "internalType": "uint256",
          "name": "",
          "type": "uint256"
        },
        {
          "internalType": "uint256",
          "name": "",
          "type": "uint256"
        }
      ],
      "stateMutability": "view",
      "type": "function"
    },
    {
      "inputs": [
        {
          "internalType": "bytes32",
          "name": "boxhash",
          "type": "bytes32"
        }
      ],
      "name": "getSafeBoxHeirsFromBoxHash",
      "outputs": [
        {
          "internalType": "address[]",
          "name": "",
          "type": "address[]"
        }
      ],
      "stateMutability": "view",
      "type": "function"
    },
    {
      "inputs": [
        {
          "internalType": "address",
          "name": "owner",
          "type": "address"
        }
      ],
      "name": "getSafeBoxHeirsFromOwner",
      "outputs": [
        {
          "internalType": "address[]",
          "name": "",
          "type": "address[]"
        }
      ],
      "stateMutability": "view",
      "type": "function"
    },
    {
      "inputs": [
        {
          "internalType": "address",
          "name": "owner",
          "type": "address"
        }
      ],
      "name": "getTimeLeftFromOwner",
      "outputs": [
        {
          "internalType": "uint256",
          "name": "",
          "type": "uint256"
        }
      ],
      "stateMutability": "view",
      "type": "function"
    },
    {
      "inputs": [],
      "name": "heirToken",
      "outputs": [
        {
          "internalType": "contract HeirToken",
          "name": "",
          "type": "address"
        }
      ],
      "stateMutability": "view",
      "type": "function"
    },
    {
      "inputs": [
        {
          "internalType": "uint256",
          "name": "",
          "type": "uint256"
        }
      ],
      "name": "isHeirTokenValid",
      "outputs": [
        {
          "internalType": "bool",
          "name": "",
          "type": "bool"
        }
      ],
      "stateMutability": "view",
      "type": "function"
    },
    {
      "inputs": [],
      "name": "minTimeIntBetweenPayments",
      "outputs": [
        {
          "internalType": "uint32",
          "name": "",
          "type": "uint32"
        }
      ],
      "stateMutability": "view",
      "type": "function"
    },
    {
      "inputs": [
        {
          "internalType": "address",
          "name": "",
          "type": "address"
        },
        {
          "internalType": "address",
          "name": "",
          "type": "address"
        },
        {
          "internalType": "uint256",
          "name": "",
          "type": "uint256"
        },
        {
          "internalType": "bytes",
          "name": "",
          "type": "bytes"
        }
      ],
      "name": "onERC721Received",
      "outputs": [
        {
          "internalType": "bytes4",
          "name": "",
          "type": "bytes4"
        }
      ],
      "stateMutability": "nonpayable",
      "type": "function"
    },
    {
      "inputs": [
        {
          "internalType": "bytes",
          "name": "performData",
          "type": "bytes"
        }
      ],
      "name": "performUpkeep",
      "outputs": [],
      "stateMutability": "nonpayable",
      "type": "function"
    },
    {
      "inputs": [
        {
          "internalType": "address",
          "name": "boxOwner",
          "type": "address"
        },
        {
          "internalType": "address",
          "name": "heirAddr",
          "type": "address"
        },
        {
          "internalType": "address",
          "name": "nftAddr",
          "type": "address"
        },
        {
          "internalType": "uint256[]",
          "name": "nftTokenIds",
          "type": "uint256[]"
        }
      ],
      "name": "rechargeWithAddress",
      "outputs": [
        {
          "internalType": "uint256",
          "name": "tokenId",
          "type": "uint256"
        }
      ],
      "stateMutability": "payable",
      "type": "function"
    },
    {
      "inputs": [
        {
          "internalType": "bytes32",
          "name": "boxhash",
          "type": "bytes32"
        },
        {
          "internalType": "uint256[8]",
          "name": "proof",
          "type": "uint256[8]"
        },
        {
          "internalType": "uint256",
          "name": "pswHash",
          "type": "uint256"
        },
        {
          "internalType": "uint256",
          "name": "allHash",
          "type": "uint256"
        },
        {
          "internalType": "uint256",
          "name": "interval",
          "type": "uint256"
        },
        {
          "internalType": "uint256",
          "name": "timeIntBetweenPayments",
          "type": "uint256"
        },
        {
          "internalType": "uint64",
          "name": "numberOfPayments",
          "type": "uint64"
        }
      ],
      "name": "register",
      "outputs": [],
      "stateMutability": "nonpayable",
      "type": "function"
    },
    {
      "inputs": [
        {
          "internalType": "uint256",
          "name": "",
          "type": "uint256"
        }
      ],
      "name": "usedProof",
      "outputs": [
        {
          "internalType": "bool",
          "name": "",
          "type": "bool"
        }
      ],
      "stateMutability": "view",
      "type": "function"
    },
    {
      "inputs": [
        {
          "internalType": "address",
          "name": "",
          "type": "address"
        }
      ],
      "name": "user2boxhash",
      "outputs": [
        {
          "internalType": "bytes32",
          "name": "",
          "type": "bytes32"
        }
      ],
      "stateMutability": "view",
      "type": "function"
    },
    {
      "inputs": [
        {
          "internalType": "uint256[8]",
          "name": "proof",
          "type": "uint256[8]"
        },
        {
          "internalType": "uint256",
          "name": "pswHash",
          "type": "uint256"
        },
        {
          "internalType": "uint256",
          "name": "allHash",
          "type": "uint256"
        },
        {
          "internalType": "address",
          "name": "boxOwner",
          "type": "address"
        }
      ],
      "name": "withdrawSignature",
      "outputs": [],
      "stateMutability": "nonpayable",
      "type": "function"
    },
    {
      "stateMutability": "payable",
      "type": "receive"
    }
  ],
  "bytecode": "0x60a06040523480156200001157600080fd5b5060405162000020906200015c565b604051809103906000f0801580156200003d573d6000803e3d6000fd5b50600380546001600160a01b0319166001600160a01b03929092169190911790556040516200006c906200016a565b604051809103906000f08015801562000089573d6000803e3d6000fd5b50600480546001600160a01b0319166001600160a01b039290921691821781556040805163d0def52160e01b815230928101929092526024820152600d60448201526c23b2b732b9b4b9902a37b5b2b760991b606482015263d0def52190608401602060405180830381600087803b1580156200010557600080fd5b505af11580156200011a573d6000803e3d6000fd5b505050506040513d601f19601f8201168201806040525081019062000140919062000178565b50600160e01b6080526000808055600181905560025562000192565b6112b68062003c0783390190565b611a548062004ebd83390190565b6000602082840312156200018b57600080fd5b5051919050565b60805160e01c613a4f620001b86000396000818161032f0152610c460152613a4f6000f3fe6080604052600436106101845760003560e01c806373f7ea88116100d1578063a9a90fb51161008a578063c9eabb3111610064578063c9eabb31146106fc578063d47b8ff71461070f578063e4d3f5c314610725578063f1b852f61461076c57600080fd5b8063a9a90fb514610682578063b61afe56146106a4578063b8df0f42146106dc57600080fd5b806373f7ea88146104c45780637e6fa39e1461051857806387ccdf771461054857806391519dec1461055e578063a063a2531461057e578063a8cdbcef1461059357600080fd5b8063280a07881161013e5780634585e33b116101185780634585e33b1461042757806361ad87c714610449578063691936aa146104695780636e04ff0d1461049657600080fd5b8063280a07881461039357806329d644dd146103e35780633601f5271461040757600080fd5b80626fe815146101ce578063150b7a021461022d5780631767ea0f146102715780631b080073146102c65780631d04ec8b1461031d57806323eca8411461036657600080fd5b366101c95760408051348152476020820152338183015290517fc6f3fb0fec49e4877342d4625d77a632541f55b7aae0f9d0b34c69b3478706dc9181900360600190a1005b600080fd5b3480156101da57600080fd5b506102186101e9366004613502565b60008281526007602090815260408083206001600160a01b0385168452600d0190915290205460ff1692915050565b60405190151581526020015b60405180910390f35b34801561023957600080fd5b50610258610248366004613320565b630a85bd0160e11b949350505050565b6040516001600160e01b03199091168152602001610224565b34801561027d57600080fd5b506102ab61028c3660046134e9565b6000908152600760205260409020805460048201546005909201549092565b60408051938452602084019290925290820152606001610224565b3480156102d257600080fd5b506102186102e1366004613213565b6001600160a01b03918216600090815260086020908152604080832054835260078252808320939094168252600d909201909152205460ff1690565b34801561032957600080fd5b506103517f000000000000000000000000000000000000000000000000000000000000000081565b60405163ffffffff9091168152602001610224565b34801561037257600080fd5b506103866103813660046134e9565b61079c565b604051610224919061369c565b34801561039f57600080fd5b506102ab6103ae3660046131d2565b6001600160a01b0316600090815260086020908152604080832054835260079091529020805460048201546005909201549092565b3480156103ef57600080fd5b506103f960015481565b604051908152602001610224565b34801561041357600080fd5b506103f96104223660046131d2565b61080b565b34801561043357600080fd5b506104476104423660046135a1565b610844565b005b34801561045557600080fd5b50610447610464366004613527565b610873565b34801561047557600080fd5b506103f96104843660046131d2565b60086020526000908152604090205481565b3480156104a257600080fd5b506104b66104b13660046135a1565b610dcd565b6040516102249291906137a5565b3480156104d057600080fd5b506103f96104df366004613213565b6001600160a01b03918216600090815260086020908152604080832054835260078252808320939094168252600a909201909152205490565b34801561052457600080fd5b506102186105333660046134e9565b600a6020526000908152604090205460ff1681565b34801561055457600080fd5b506103f960025481565b34801561056a57600080fd5b5061044761057936600461347a565b610e0e565b34801561058a57600080fd5b50610447611558565b34801561059f57600080fd5b506106206105ae3660046134e9565b600760208190526000918252604090912080546001820154600283015460038401546004850154600586015460068701549787015460089097015495976001600160401b03808716986801000000000000000090970416966001600160a01b039586169695909416949293919290918a565b604080519a8b526001600160401b03998a1660208c015298909716978901979097526001600160a01b03948516606089015293909216608087015260a086015260c085015260e084015261010083019190915261012082015261014001610224565b34801561068e57600080fd5b50610697611acc565b60405161022491906136e9565b3480156106b057600080fd5b506004546106c4906001600160a01b031681565b6040516001600160a01b039091168152602001610224565b3480156106e857600080fd5b506103866106f73660046131d2565b611c8f565b6103f961070a36600461324c565b611d10565b34801561071b57600080fd5b506103f960005481565b34801561073157600080fd5b506103f9610740366004613502565b60008281526007602090815260408083206001600160a01b0385168452600a0190915290205492915050565b34801561077857600080fd5b506102186107873660046134e9565b60096020526000908152604090205460ff1681565b6000818152600760209081526040918290206009018054835181840281018401909452808452606093928301828280156107ff57602002820191906000526020600020905b81546001600160a01b031681526001909101906020018083116107e1575b50505050509050919050565b6001600160a01b0381166000908152600860209081526040808320548352600790915281206005015461083e90426138af565b92915050565b600054610852906001613883565b6000908155610863828401846133e3565b905061086e81611e7e565b505050565b6000878152600760209081526040808320338452600890925290912054156108f65760405162461bcd60e51b815260206004820152602b60248201527f506563756e69614c6f636b3a3a72656769737465723a206f6e6520757365722060448201526a0dedcca40e6c2cccac4def60ab1b60648201526084015b60405180910390fd5b8054156109605760405162461bcd60e51b815260206004820152603260248201527f506563756e69614c6f636b3a3a72656769737465723a20626f78686173682068604482015271185cc81899595b881c9959da5cdd195c995960721b60648201526084016108ed565b87863360405160200161098f92919091825260601b6bffffffffffffffffffffffff1916602082015260340190565b60405160208183030381529060405280519060200120146109fe5760405162461bcd60e51b8152602060048201526024808201527f506563756e69614c6f636b3a3a72656769737465723a20626f78686173682065604482015263393937b960e11b60648201526084016108ed565b600354604080518082018252895181526020808b0151818301528251608080820185528c8501518286019081526060808f01518185015290835285518087018752918e0151825260a08e015182850152828401919091528451808601865260c08e0151815260e08e015181850152855191820186528c82526000938201939093528085018b905293516308a3cff560e11b81526001600160a01b03909516946311479fea94610ab1949391600401613721565b60206040518083038186803b158015610ac957600080fd5b505afa158015610add573d6000803e3d6000fd5b505050506040513d601f19601f82011682018060405250810190610b0191906134c7565b610b5d5760405162461bcd60e51b815260206004820152602760248201527f506563756e69614c6f636b3a3a72656769737465723a2076657269667950726f6044820152661bd98819985a5b60ca1b60648201526084016108ed565b60008411610bc45760405162461bcd60e51b815260206004820152602e60248201527f506563756e69614c6f636b3a3a72656769737465723a20696e74657276616c2060448201526d63616e6e6f74206265207a65726f60901b60648201526084016108ed565b6001826001600160401b03161015610c445760405162461bcd60e51b815260206004820152603f60248201527f506563756e69614c6f636b3a3a72656769737465723a204e756d626572206f6660448201527f207061796d656e74732073686f756c64206d6f7265207468616e207a65726f0060648201526084016108ed565b7f000000000000000000000000000000000000000000000000000000000000000063ffffffff16831015610cfd5760405162461bcd60e51b815260206004820152605460248201527f506563756e69614c6f636b3a3a72656769737465723a20496e74657276616c2060448201527f6265747765656e207061796d656e74732073686f756c64206265206772656174606482015273195c881d1a185b881b5a5b881a5b9d195c9d985b60621b608482015260a4016108ed565b878155600281018054336001600160a01b03199091168117825560048301869055426005808501919091556001808501805467ffffffffffffffff19166001600160401b0388161790556008808601889055600093845260205260408084208d9055825491820183559183527f036b6384b5eca791c62761152d0c79bb0604c104a5fb6f4eb0703f3154bb3db0018b9055915491516001600160a01b03909216918a917f1082cda15f9606da555bb7e9bf4eeee2f8e34abe85d3924bf9bacb716f8feca691a35050505050505050565b600060606000610ddb611acc565b90506000815111925080604051602001610df591906136e9565b6040516020818303038152906040529150509250929050565b336001600160a01b038216811415610e7c5760405162461bcd60e51b815260206004820152603c60248201526000805160206139fa83398151915260448201527f4f776e65722063616e6e6f7420776974686472617720616d6f756e740000000060648201526084016108ed565b845160009081526009602052604090205460ff1615610ede5760405162461bcd60e51b815260206004820152602a60248201526000805160206139fa8339815191526044820152691c1c9bdbd9881d5cd95960b21b60648201526084016108ed565b6001600160a01b0382166000908152600860209081526040918290205491518291610f2891889187910191825260601b6bffffffffffffffffffffffff1916602082015260340190565b6040516020818303038152906040528051906020012014610f8f5760405162461bcd60e51b815260206004820152602d60248201526000805160206139fa83398151915260448201526c3839bba430b9b41032b93937b960991b60648201526084016108ed565b60008181526007602052604090208054610fff5760405162461bcd60e51b815260206004820152603860248201526000805160206139fa83398151915260448201527f73616665626f78206e6f7420726567697374657220796574000000000000000060648201526084016108ed565b6001600160a01b0383166000908152600c8201602052604090205461106b5760405162461bcd60e51b815260206004820152602e60248201526000805160206139fa83398151915260448201526d12195a5c881b9bdd081d985b1a5960921b60648201526084016108ed565b6001600160a01b0383166000908152600f8201602052604090205460ff166111035760405162461bcd60e51b815260206004820152605160248201526000805160206139fa83398151915260448201527f486569722068617320616c72656164792074616b656e20616d6f756e74206f72606482015270081dda5b1b081a5cc818d85b98d95b1959607a1b608482015260a4016108ed565b600081600a016000856001600160a01b03166001600160a01b031681526020019081526020016000205490506111616040518060400160405280601081526020016f30b6b7bab73a103bb4ba34323930bbb760811b815250826126f2565b6003546040805180820182528a5181526020808c01518183015282516080810184528c8401518185019081526060808f015190830152815283518085019094526001600160a01b03909416936311479fea939091820190808e6004602002015181526020018e6005600881106111d9576111d9613974565b60200201519052905260408051808201909152808d6006602002015181526020018d60076008811061120d5761120d613974565b602002015181525060405180606001604052808d81526020018781526020018c8152506040518563ffffffff1660e01b815260040161124f9493929190613721565b60206040518083038186803b15801561126757600080fd5b505afa15801561127b573d6000803e3d6000fd5b505050506040513d601f19601f8201168201806040525081019061129f91906134c7565b6112fb5760405162461bcd60e51b815260206004820152602760248201527f506563756e69614c6f636b3a3a77697468647261773a2076657269667950726f6044820152661bd98819985a5b60ca1b60648201526084016108ed565b6001600160a01b0384166000908152600c83016020526040902054806113735760405162461bcd60e51b815260206004820152602760248201527f506563756e69614c6f636b3a3a77697468647261773a20746f6b656e206964206044820152661a5b9d985b1a5960ca1b60648201526084016108ed565b6004805460405163020604bf60e21b815291820183905230916001600160a01b039091169063081812fc9060240160206040518083038186803b1580156113b957600080fd5b505afa1580156113cd573d6000803e3d6000fd5b505050506040513d601f19601f820116820180604052508101906113f191906131f6565b6001600160a01b0316146114475760405162461bcd60e51b815260206004820181905260248201527f417070726f76616c20666f72204e465420546f6b656e206e6f7420676976656e60448201526064016108ed565b60048054604051630852cd8d60e31b81529182018390526001600160a01b0316906342966c6890602401600060405180830381600087803b15801561148b57600080fd5b505af115801561149f573d6000803e3d6000fd5b505050506001600960008b6000600881106114bc576114bc613974565b6020908102919091015182528181019290925260409081016000908120805494151560ff199586161790556001600160a01b03808a16808352600d890190945290829020805490941660011790935560028601549051919216907f2886d3a939fdefc4ab38e6b3413f0240ecd7a2f0b87072a44f0a177efaedd483906115459086815260200190565b60405180910390a3505050505050505050565b33600081815260086020526040902054806115eb5760405162461bcd60e51b815260206004820152604760248201527f506563756e69614c6f636b3a3a63616e63656c426f78416e645472616e73666560448201527f7246756e6473546f4f776e65723a2073616665626f78206e6f742072656769736064820152661d195c881e595d60ca1b608482015260a4016108ed565b600081815260076020526040902060028101546001600160a01b0316331461168d5760405162461bcd60e51b815260206004820152604960248201527f506563756e69614c6f636b3a3a63616e63656c426f78416e645472616e73666560448201527f7246756e6473546f4f776e65723a206f6e6c79206f776e65722063616e2063616064820152686e63656c207468697360b81b608482015260a4016108ed565b8060050154421061171b5760405162461bcd60e51b815260206004820152604c60248201527f506563756e69614c6f636b3a3a63616e63656c426f78416e645472616e73666560448201527f7246756e6473546f4f776e65723a2063616e6e6f742063616e63656c2074696d60648201526b19481a185cc81c185cdcd95960a21b608482015260a4016108ed565b60008160090180548060200260200160405190810160405280929190818152602001828054801561177557602002820191906000526020600020905b81546001600160a01b03168152600190910190602001808311611757575b5050505060068401549192505080156117995760006006840155611799858261273b565b60005b8251811015611a105783600f0160008483815181106117bd576117bd613974565b6020908102919091018101516001600160a01b031682528101919091526040016000205460ff16156119fe57600084600e01600085848151811061180357611803613974565b60200260200101516001600160a01b03166001600160a01b031681526020019081526020016000208054905011156119a45760005b84600e01600085848151811061185057611850613974565b60200260200101516001600160a01b03166001600160a01b03168152602001908152602001600020805490508110156119a2578460030160009054906101000a90046001600160a01b03166001600160a01b03166342842e0e308988600e0160008988815181106118c3576118c3613974565b60200260200101516001600160a01b03166001600160a01b0316815260200190815260200160002085815481106118fc576118fc613974565b6000918252602090912001546040516001600160e01b031960e086901b1681526001600160a01b0393841660048201529290911660248301526044820152606401600060405180830381600087803b15801561195757600080fd5b505af115801561196b573d6000803e3d6000fd5b505050506119906040518060600160405280602481526020016139d660249139612940565b8061199a816138f2565b915050611838565b505b600084600f0160008584815181106119be576119be613974565b60200260200101516001600160a01b03166001600160a01b0316815260200190815260200160002060006101000a81548160ff0219169083151502179055505b80611a08816138f2565b91505061179c565b50600084815260076020819052604082208281556001810180546fffffffffffffffffffffffffffffffff191690556002810180546001600160a01b031990811690915560038201805490911690556004810183905560058101839055600681018390559081018290556008810182905590611a8f6009830182613127565b50506040516001600160a01b038616907f1c51c371c225c7cc89cebcc2ac4d4b519f8d67182fe88b8f38032a02259ddf7f90600090a25050505050565b6005546060906000906001600160401b03811115611aec57611aec61398a565b604051908082528060200260200182016040528015611b15578160200160208202803683370190505b5090506000805b600554811015611c7b57600060058281548110611b3b57611b3b613974565b600091825260208083209091015480835260079091526040822090925090805b6009830154811015611c645760048301546005840154611b7b90426138af565b10158015611bc8575082600f016000846009018381548110611b9f57611b9f613974565b60009182526020808320909101546001600160a01b0316835282019290925260400190205460ff165b8015611c13575082600d016000846009018381548110611bea57611bea613974565b60009182526020808320909101546001600160a01b0316835282019290925260400190205460ff165b8015611c1d575081155b15611c525783878781518110611c3557611c35613974565b602090810291909101015285611c4a816138f2565b965050600191505b80611c5c816138f2565b915050611b5b565b505050508080611c73906138f2565b915050611b1c565b506005548114611c89578082525b50919050565b6001600160a01b038116600090815260086020908152604080832054835260078252918290206009018054835181840281018401909452808452606093928301828280156107ff576020028201919060005260206000209081546001600160a01b031681526001909101906020018083116107e15750505050509050919050565b6000336001600160a01b03861614611d8d5760405162461bcd60e51b815260206004820152604660248201526000805160206139b683398151915260448201527f3a206f6e6c79206f776e65722063616e2061737369676e2066756e647320746f60648201526520686569727360d01b608482015260a4016108ed565b6001600160a01b038416611df75760405162461bcd60e51b815260206004820152603a60248201526000805160206139b683398151915260448201527f3a20486569722063616e6e6f742062652030206164647265737300000000000060648201526084016108ed565b836001600160a01b0316856001600160a01b03161415611e665760405162461bcd60e51b815260206004820152603660248201526000805160206139b68339815191526044820152751d1027bbb732b91031b0b73737ba103132903432b4b960511b60648201526084016108ed565b34611e748686838787612986565b9695505050505050565b60018054611e8b91613883565b60015560005b81518110156126dd57600060076000848481518110611eb257611eb2613974565b60200260200101518152602001908152602001600020600901805480602002602001604051908101604052809291908181526020018280548015611f1f57602002820191906000526020600020905b81546001600160a01b03168152600190910190602001808311611f01575b5050505050905060005b81518110156126c85760076000858581518110611f4857611f48613974565b60200260200101518152602001908152602001600020600d016000838381518110611f7557611f75613974565b6020908102919091018101516001600160a01b031682528101919091526040016000205460ff168015612011575060076000858581518110611fb957611fb9613974565b602002602001015181526020019081526020016000206004015460076000868681518110611fe957611fe9613974565b60200260200101518152602001908152602001600020600501544261200e91906138af565b10155b801561208657506007600085858151811061202e5761202e613974565b60200260200101518152602001908152602001600020600801546007600086868151811061205e5761205e613974565b60200260200101518152602001908152602001600020600701544261208391906138af565b10155b80156120f85750600760008585815181106120a3576120a3613974565b60200260200101518152602001908152602001600020600f0160008383815181106120d0576120d0613974565b6020908102919091018101516001600160a01b031682528101919091526040016000205460ff165b156126a55760006007600086868151811061211557612115613974565b60200260200101518152602001908152602001600020600b01600084848151811061214257612142613974565b60200260200101516001600160a01b03166001600160a01b0316815260200190815260200160002054905060008111801561221257506007600086868151811061218e5761218e613974565b6020026020010151815260200190815260200160002060010160009054906101000a90046001600160401b03166001600160401b0316600760008787815181106121da576121da613974565b6020026020010151815260200190815260200160002060010160089054906101000a90046001600160401b03166001600160401b0316105b15612330576122626040518060400160405280600f81526020016e3830bcb4b7339030b6ba16103a379d60891b8152508285858151811061225557612255613974565b6020026020010151612d83565b6007600086868151811061227857612278613974565b60200260200101518152602001908152602001600020600101600881819054906101000a90046001600160401b0316809291906122b49061390d565b91906101000a8154816001600160401b0302191690836001600160401b031602179055505042600760008787815181106122f0576122f0613974565b602002602001015181526020019081526020016000206007018190555061233083838151811061232257612322613974565b60200260200101518261273b565b60006001600160a01b03166007600087878151811061235157612351613974565b6020908102919091018101518252810191909152604001600020600301546001600160a01b03161461259b5760005b6007600087878151811061239657612396613974565b60200260200101518152602001908152602001600020600e0160008585815181106123c3576123c3613974565b60200260200101516001600160a01b03166001600160a01b0316815260200190815260200160002080549050811015612599576007600087878151811061240c5761240c613974565b6020026020010151815260200190815260200160002060030160009054906101000a90046001600160a01b03166001600160a01b03166342842e0e3086868151811061245a5761245a613974565b6020026020010151600760008b8b8151811061247857612478613974565b60200260200101518152602001908152602001600020600e0160008989815181106124a5576124a5613974565b60200260200101516001600160a01b03166001600160a01b0316815260200190815260200160002085815481106124de576124de613974565b6000918252602090912001546040516001600160e01b031960e086901b1681526001600160a01b0393841660048201529290911660248301526044820152606401600060405180830381600087803b15801561253957600080fd5b505af115801561254d573d6000803e3d6000fd5b505050506125876040518060400160405280601581526020017413dddb995c88139195081d1c985b9cd999995c9959605a1b815250612940565b80612591816138f2565b915050612380565b505b6000600760008787815181106125b3576125b3613974565b60200260200101518152602001908152602001600020600f0160008585815181106125e0576125e0613974565b60200260200101516001600160a01b03166001600160a01b0316815260200190815260200160002060006101000a81548160ff02191690831515021790555060006007600087878151811061263757612637613974565b60200260200101518152602001908152602001600020600d01600085858151811061266457612664613974565b60200260200101516001600160a01b03166001600160a01b0316815260200190815260200160002060006101000a81548160ff021916908315150217905550505b620186a05a10156126b65750505050565b806126c0816138f2565b915050611f29565b505080806126d5906138f2565b915050611e91565b506002546126ec906001613883565b60025550565b61273782826040516024016127089291906137db565b60408051601f198184030181529190526020810180516001600160e01b03166309710a9d60e41b179052612dc6565b5050565b804710156127a55760405162461bcd60e51b815260206004820152603160248201527f506563756e69614c6f636b3a3a736166655472616e736665724554483a20496e6044820152701cdd59999a58da595b9d08185b5bdd5b9d607a1b60648201526084016108ed565b60065460ff16156128095760405162461bcd60e51b815260206004820152602860248201527f506563756e69614c6f636b3a3a736166655472616e736665724554483a2052656044820152672d456e747261637960c01b60648201526084016108ed565b6006805460ff19166001179055604080516000808252602082019092526001600160a01b0384169083906040516128409190613680565b60006040518083038185875af1925050503d806000811461287d576040519150601f19603f3d011682016040523d82523d6000602084013e612882565b606091505b50509050806128f05760405162461bcd60e51b815260206004820152603460248201527f5472616e7366657248656c7065723a3a736166655472616e736665724554483a60448201527308115512081d1c985b9cd9995c8819985a5b195960621b60648201526084016108ed565b6006805460ff19169055604080518381526001600160a01b03851660208201527fd0107046e9d9bb8140de7842695f5146ef44c52ca4577f579f8c5cba381f13ca910160405180910390a1505050565b6129838160405160240161295491906137c8565b60408051601f198184030181529190526020810180516001600160e01b031663104c13eb60e21b179052612dc6565b50565b6001600160a01b03851660009081526008602052604081205480612a005760405162461bcd60e51b815260206004820152603a60248201526000805160206139b683398151915260448201527f3a2073616665626f78206e6f742072656769737465722079657400000000000060648201526084016108ed565b60008181526007602090815260408083206001600160a01b038a168452600f81019092529091205460ff1615612a965760405162461bcd60e51b815260206004820152604160248201526000805160206139b683398151915260448201527f3a20416d6f756e7420616c72656164792061737369676e656420746f206865696064820152603960f91b608482015260a4016108ed565b6000861180612ab657506001600160a01b03851615801590612ab6575060015b612b245760405162461bcd60e51b815260206004820152604560248201526000805160206139b683398151915260448201527f3a20426f746820616d6f756e7420616e64204e46542063616e6e6f7420626520606482015264656d70747960d81b608482015260a4016108ed565b6001810154612b3c906001600160401b031687613934565b15612bb85760405162461bcd60e51b815260206004820152605260248201526000805160206139b683398151915260448201527f3a20616d6f756e742073686f756c6420626520646976697369626c65206279206064820152716e756d626572206f66207061796d656e747360701b608482015260a4016108ed565b8515612bfd57612bca88838989612de7565b612bfd60405180604001604052806011815260200170616d6f756e74206465706f73697465643d60781b815250876126f2565b6001600160a01b03851615801590612c13575060015b15612c845760038101546001600160a01b0316612c48576003810180546001600160a01b0319166001600160a01b0387161790555b612c558883898888612ebb565b612c846040518060400160405280600e81526020016d1391951cc819195c1bdcda5d195960921b815250612940565b6001600160a01b038781166000818152600f84016020526040808220805460ff1916600117905560048054825163d0def52160e01b8152918201949094526024810191909152604481019190915291169063d0def52190606401602060405180830381600087803b158015612cf857600080fd5b505af1158015612d0c573d6000803e3d6000fd5b505050506040513d601f19601f82011682018060405250810190612d309190613612565b6001600160a01b0388166000818152600c84016020908152604082208490556009909401805460018101825590825293902090920180546001600160a01b03191690921790915591505095945050505050565b61086e838383604051602401612d9b939291906137fd565b60408051601f198184030181529190526020810180516001600160e01b031663e3849f7960e01b1790525b80516a636f6e736f6c652e6c6f67602083016000808483855afa5050505050565b60008381526007602090815260408083206001600160a01b0386168452600a81019092528220805491928492612e1e908490613883565b9250508190555081816006016000828254612e399190613883565b90915550506001810154612e56906001600160401b03168361389b565b6001600160a01b038085166000818152600b8501602052604090819020939093559151908716907f8f6656c43e8d5d6f44d70129ab4b94c5d5d9502c924bc5de7838cc5181911b1290612eac9086815260200190565b60405180910390a35050505050565b6000848152600760205260408120905b82518110156130d957306001600160a01b0316846001600160a01b031663081812fc858481518110612eff57612eff613974565b60200260200101516040518263ffffffff1660e01b8152600401612f2591815260200190565b60206040518083038186803b158015612f3d57600080fd5b505afa158015612f51573d6000803e3d6000fd5b505050506040513d601f19601f82011682018060405250810190612f7591906131f6565b6001600160a01b031614612fe55760405162461bcd60e51b815260206004820152603160248201527f506563756e69614c6f636b3a3a5f72656368617267654f664e66743a204e465460448201527008185c1c1c9bdd985b081b9bdd081cd95d607a1b60648201526084016108ed565b836001600160a01b03166342842e0e883086858151811061300857613008613974565b60209081029190910101516040516001600160e01b031960e086901b1681526001600160a01b0393841660048201529290911660248301526044820152606401600060405180830381600087803b15801561306257600080fd5b505af1158015613076573d6000803e3d6000fd5b505050506001600160a01b0385166000908152600e83016020526040902083518490839081106130a8576130a8613974565b60209081029190910181015182546001810184556000938452919092200155806130d1816138f2565b915050612ecb565b506040516001600160a01b03848116825280861691908816907f99c28593372d33b0a81876848bd002f9e2e4ec27e23cb79bdb3946e534e9f1f49060200160405180910390a3505050505050565b508054600082559060005260206000209081019061298391905b808211156131555760008155600101613141565b5090565b600082601f83011261316a57600080fd5b6040516101008082018281106001600160401b038211171561318e5761318e61398a565b60405281848281018710156131a257600080fd5b600092505b60088310156131c7578035825260019290920191602091820191016131a7565b509195945050505050565b6000602082840312156131e457600080fd5b81356131ef816139a0565b9392505050565b60006020828403121561320857600080fd5b81516131ef816139a0565b6000806040838503121561322657600080fd5b8235613231816139a0565b91506020830135613241816139a0565b809150509250929050565b6000806000806080858703121561326257600080fd5b843561326d816139a0565b935060208581013561327e816139a0565b9350604086013561328e816139a0565b925060608601356001600160401b038111156132a957600080fd5b8601601f810188136132ba57600080fd5b80356132cd6132c882613860565b613830565b8082825284820191508484018b868560051b87010111156132ed57600080fd5b600094505b838510156133105780358352600194909401939185019185016132f2565b50979a9699509497505050505050565b6000806000806080858703121561333657600080fd5b8435613341816139a0565b9350602085810135613352816139a0565b93506040860135925060608601356001600160401b038082111561337557600080fd5b818801915088601f83011261338957600080fd5b81358181111561339b5761339b61398a565b6133ad601f8201601f19168501613830565b915080825289848285010111156133c357600080fd5b808484018584013760008482840101525080935050505092959194509250565b600060208083850312156133f657600080fd5b82356001600160401b0381111561340c57600080fd5b8301601f8101851361341d57600080fd5b803561342b6132c882613860565b80828252848201915084840188868560051b870101111561344b57600080fd5b600094505b8385101561346e578035835260019490940193918501918501613450565b50979650505050505050565b600080600080610160858703121561349157600080fd5b61349b8686613159565b9350610100850135925061012085013591506101408501356134bc816139a0565b939692955090935050565b6000602082840312156134d957600080fd5b815180151581146131ef57600080fd5b6000602082840312156134fb57600080fd5b5035919050565b6000806040838503121561351557600080fd5b823591506020830135613241816139a0565b60008060008060008060006101c0888a03121561354357600080fd5b873596506135548960208a01613159565b955061012088013594506101408801359350610160880135925061018088013591506101a08801356001600160401b038116811461359157600080fd5b8091505092959891949750929550565b600080602083850312156135b457600080fd5b82356001600160401b03808211156135cb57600080fd5b818501915085601f8301126135df57600080fd5b8135818111156135ee57600080fd5b86602082850101111561360057600080fd5b60209290920196919550909350505050565b60006020828403121561362457600080fd5b5051919050565b8060005b600281101561364e57815184526020938401939091019060010161362f565b50505050565b6000815180845261366c8160208601602086016138c6565b601f01601f19169290920160200192915050565b600082516136928184602087016138c6565b9190910192915050565b6020808252825182820181905260009190848201906040850190845b818110156136dd5783516001600160a01b0316835292840192918401916001016136b8565b50909695505050505050565b6020808252825182820181905260009190848201906040850190845b818110156136dd57835183529284019291840191600101613705565b6101608101613730828761362b565b60408083018660005b60028110156137605761374d83835161362b565b9183019160209190910190600101613739565b5050505061377160c083018561362b565b61010082018360005b600381101561379957815183526020928301929091019060010161377a565b50505095945050505050565b82151581526040602082015260006137c06040830184613654565b949350505050565b6020815260006131ef6020830184613654565b6040815260006137ee6040830185613654565b90508260208301529392505050565b6060815260006138106060830186613654565b6020830194909452506001600160a01b0391909116604090910152919050565b604051601f8201601f191681016001600160401b03811182821017156138585761385861398a565b604052919050565b60006001600160401b038211156138795761387961398a565b5060051b60200190565b6000821982111561389657613896613948565b500190565b6000826138aa576138aa61395e565b500490565b6000828210156138c1576138c1613948565b500390565b60005b838110156138e15781810151838201526020016138c9565b8381111561364e5750506000910152565b600060001982141561390657613906613948565b5060010190565b60006001600160401b038083168181141561392a5761392a613948565b6001019392505050565b6000826139435761394361395e565b500690565b634e487b7160e01b600052601160045260246000fd5b634e487b7160e01b600052601260045260246000fd5b634e487b7160e01b600052603260045260246000fd5b634e487b7160e01b600052604160045260246000fd5b6001600160a01b038116811461298357600080fdfe506563756e69614c6f636b3a3a726563686172676557697468416464726573734f776e6572204e46547320747261736e666665726564206261636b20746f206f776e6572506563756e69614c6f636b3a3a77697468647261775369676e61747572653a20a2646970667358221220cbe34bf9aa003bc77be3a3217a70511d23c629af9c2750dcdd7e73c7406cf61064736f6c63430008070033608060405234801561001057600080fd5b50611296806100206000396000f3fe608060405234801561001057600080fd5b506004361061002b5760003560e01c806311479fea14610030575b600080fd5b61004361003e36600461103a565b610057565b604051901515815260200160405180910390f35b6000610061610ea8565b60408051808201825287518152602080890151818301529083528151608080820184528851518285019081528951840151606080850191909152908352845180860186528a8501805151825251850151818601528385015285840192909252835180850185528851815288840151818501528585015283516003808252918101909452600093929091908301908036833701905050905060005b600381101561014a5784816003811061011657610116611234565b602002015182828151811061012d5761012d611234565b602090810291909101015280610142816111e1565b9150506100fb565b506101558183610173565b6101645760019250505061016b565b6000925050505b949350505050565b60007f30644e72e131a029b85045b68181585d2833e84879b9709143e1f593f00000018161019f61036a565b9050806080015151855160016101b59190611193565b146101fc5760405162461bcd60e51b81526020600482015260126024820152711d995c9a599a595c8b5898590b5a5b9c1d5d60721b60448201526064015b60405180910390fd5b604080518082019091526000808252602082018190525b86518110156102ed578387828151811061022f5761022f611234565b6020026020010151106102845760405162461bcd60e51b815260206004820152601f60248201527f76657269666965722d6774652d736e61726b2d7363616c61722d6669656c640060448201526064016101f3565b6102d9826102d4856080015184600161029d9190611193565b815181106102ad576102ad611234565b60200260200101518a85815181106102c7576102c7611234565b60200260200101516107f3565b61088f565b9150806102e5816111e1565b915050610213565b5061031681836080015160008151811061030957610309611234565b602002602001015161088f565b905061034c6103288660000151610927565b8660200151846000015185602001518587604001518b6040015189606001516109c6565b61035c5760019350505050610364565b600093505050505b92915050565b610372610ef9565b6040805180820182527f0f6a9292f44e0c5fd56723e16aa2d2886553bbe43de550a50fd25364395a831581527f2f9ce71de54ad21b602c1a43eab00d11cc53a2b8752d9b0b2df634d87464fa6b6020808301919091529083528151608080820184527f15fdcc142479f55492db36142b172560437a29b9e945db4319241f55ee4e343e8285019081527f2fa5aa0478303739373560a2e2424bd3f4dfb91dc35deacb52d00989300991cb606080850191909152908352845180860186527f02d6bf0a28b48a63787457a69b8313c614a6568b4cce18395154fe8f42d4daed81527f16207b64d553bbc5277313c8e8a14977326d34efc78531ee60b8bcaa8bae3465818601528385015285840192909252835180820185527f198e9393920d483a7260bfb731fb5d25f1aa493335a9e71297e485b7aef312c28186019081527f1800deef121f1e76426a00665e5c4479674322d4f75edadd46debd5cd992f6ed828501528152845180860186527f090689d0585ff075ec9e99ad690c3395bc4b313370b38ef355acdadcd122975b81527f12c85ea5db8c6deb4aab71808dcb408fe3d1e7690c43d37b4ce6cc0166fa7daa818601528185015285850152835190810184527f2eeefc3a354cd850b6947daa861a817ca411369f3790270a1976a5e7008426e98185019081527f1c16b6153e3e5304be126405deba45a7eece2309f53229f4bdf7b7b9c03164c8828401528152835180850185527f2007c6fff3e2cdf709d69127dc92744614627d041e211a86d0466287d554029081527f1b548b0ee40dec780ca8a21b8f11bc25601fe0a63899587ad7993a943b7833318185015281840152908401528151600480825260a08201909352919082015b60408051808201909152600080825260208201528152602001906001900390816105ed57505060808201908152604080518082019091527f2e32c9e22bed833171a84a4218fac8dc39b8f4363ce6bf3eae71c3e85b17e5ea81527f0a6ea17084eec888c6c73e2f9c5e9c6487a5d1f61fbf72b0913b0c5961f7d76d60208201529051805160009061068057610680611234565b602002602001018190525060405180604001604052807f1c8de427f4226ccfdfac17d880785fddd6947df69b744cd48a675d03e32f852d81526020017f07a3b41ed49144e349ac2cd1e105a757be1d51c1a2af575324d78d62071de44281525081608001516001815181106106f7576106f7611234565b602002602001018190525060405180604001604052807f1c649d0adb3e095b29de0cd602d8567fffcb5a053c5a05454b1946bba81a70b781526020017f19621312f8fe56f3d691d36528d987a434bdb560df990dc13838adf5836b28c2815250816080015160028151811061076e5761076e611234565b602002602001018190525060405180604001604052807f2db18aac3e08a0a8dbd8dde7c02657a046d0bbc81374e0a03aec0ced801ed32081526020017f1fd2bc2305899ced683425bb06a702b6c07327b68cd0a22701754c04bb050a1381525081608001516003815181106107e5576107e5611234565b602002602001018190525090565b604080518082019091526000808252602082015261080f610f4a565b835181526020808501519082015260408101839052600060608360808460076107d05a03fa905080801561084257610844565bfe5b50806108875760405162461bcd60e51b81526020600482015260126024820152711c185a5c9a5b99cb5b5d5b0b59985a5b195960721b60448201526064016101f3565b505092915050565b60408051808201909152600080825260208201526108ab610f68565b8351815260208085015181830152835160408301528301516060808301919091526000908360c08460066107d05a03fa90508080156108425750806108875760405162461bcd60e51b81526020600482015260126024820152711c185a5c9a5b99cb5859190b59985a5b195960721b60448201526064016101f3565b604080518082019091526000808252602082015281517f30644e72e131a029b85045b68181585d97816a916871ca8d3c208c16d87cfd479015801561096e57506020830151155b1561098e5750506040805180820190915260008082526020820152919050565b6040518060400160405280846000015181526020018285602001516109b391906111fc565b6109bd90846111ca565b90529392505050565b60408051600480825260a08201909252600091829190816020015b60408051808201909152600080825260208201528152602001906001900390816109e157505060408051600480825260a0820190925291925060009190602082015b610a2b610f86565b815260200190600190039081610a235790505090508a82600081518110610a5457610a54611234565b60200260200101819052508882600181518110610a7357610a73611234565b60200260200101819052508682600281518110610a9257610a92611234565b60200260200101819052508482600381518110610ab157610ab1611234565b60200260200101819052508981600081518110610ad057610ad0611234565b60200260200101819052508781600181518110610aef57610aef611234565b60200260200101819052508581600281518110610b0e57610b0e611234565b60200260200101819052508381600381518110610b2d57610b2d611234565b6020026020010181905250610b428282610b51565b9b9a5050505050505050505050565b60008151835114610b9d5760405162461bcd60e51b81526020600482015260166024820152751c185a5c9a5b99cb5b195b99dd1a1ccb59985a5b195960521b60448201526064016101f3565b82516000610bac8260066111ab565b905060008167ffffffffffffffff811115610bc957610bc961124a565b604051908082528060200260200182016040528015610bf2578160200160208202803683370190505b50905060005b83811015610e2d57868181518110610c1257610c12611234565b60200260200101516000015182826006610c2c91906111ab565b610c37906000611193565b81518110610c4757610c47611234565b602002602001018181525050868181518110610c6557610c65611234565b60200260200101516020015182826006610c7f91906111ab565b610c8a906001611193565b81518110610c9a57610c9a611234565b602002602001018181525050858181518110610cb857610cb8611234565b6020908102919091010151515182610cd18360066111ab565b610cdc906002611193565b81518110610cec57610cec611234565b602002602001018181525050858181518110610d0a57610d0a611234565b60209081029190910181015151015182610d258360066111ab565b610d30906003611193565b81518110610d4057610d40611234565b602002602001018181525050858181518110610d5e57610d5e611234565b602002602001015160200151600060028110610d7c57610d7c611234565b602002015182610d8d8360066111ab565b610d98906004611193565b81518110610da857610da8611234565b602002602001018181525050858181518110610dc657610dc6611234565b602002602001015160200151600160028110610de457610de4611234565b602002015182610df58360066111ab565b610e00906005611193565b81518110610e1057610e10611234565b602090810291909101015280610e25816111e1565b915050610bf8565b50610e36610fa6565b6000602082602086026020860160086107d05a03fa9050808015610842575080610e9a5760405162461bcd60e51b81526020600482015260156024820152741c185a5c9a5b99cb5bdc18dbd9194b59985a5b1959605a1b60448201526064016101f3565b505115159695505050505050565b6040805160a081019091526000606082018181526080830191909152815260208101610ed2610f86565b8152602001610ef4604051806040016040528060008152602001600081525090565b905290565b6040805160e08101909152600060a0820181815260c0830191909152815260208101610f23610f86565b8152602001610f30610f86565b8152602001610f3d610f86565b8152602001606081525090565b60405180606001604052806003906020820280368337509192915050565b60405180608001604052806004906020820280368337509192915050565b6040518060400160405280610f99610fc4565b8152602001610ef4610fc4565b60405180602001604052806001906020820280368337509192915050565b60405180604001604052806002906020820280368337509192915050565b600082601f830112610ff357600080fd5b610ffb61112b565b80838560408601111561100d57600080fd5b60005b600281101561102f578135845260209384019390910190600101611010565b509095945050505050565b60008060008061016080868803121561105257600080fd5b61105c8787610fe2565b9450604087605f88011261106f57600080fd5b61107761112b565b8082890160c08a018b81111561108c57600080fd5b60005b60028110156110b6576110a28d84610fe2565b85526020909401939185019160010161108f565b508298506110c48c82610fe2565b975050505050508661011f8701126110db57600080fd5b6110e3611162565b80610100880189848a0111156110f857600080fd5b600093505b600384101561111d578035835260019390930192602092830192016110fd565b509598949750929550505050565b6040805190810167ffffffffffffffff8111828210171561115c57634e487b7160e01b600052604160045260246000fd5b60405290565b6040516060810167ffffffffffffffff8111828210171561115c57634e487b7160e01b600052604160045260246000fd5b600082198211156111a6576111a661121e565b500190565b60008160001904831182151516156111c5576111c561121e565b500290565b6000828210156111dc576111dc61121e565b500390565b60006000198214156111f5576111f561121e565b5060010190565b60008261121957634e487b7160e01b600052601260045260246000fd5b500690565b634e487b7160e01b600052601160045260246000fd5b634e487b7160e01b600052603260045260246000fd5b634e487b7160e01b600052604160045260246000fdfea2646970667358221220e0bd9ed3edb9a70b0d43292cff3a8dc9a0f4da12cb43ffbe58c2808b52c4613d64736f6c6343000807003360806040523480156200001157600080fd5b50604051806040016040528060048152602001632432b4b960e11b815250604051806040016040528060048152602001632422a4a960e11b815250816000908051906020019062000064929190620000f3565b5080516200007a906001906020840190620000f3565b50505062000097620000916200009d60201b60201c565b620000a1565b620001d6565b3390565b600780546001600160a01b038381166001600160a01b0319831681179093556040519116919082907f8be0079c531659141344cd1fd0a4f28419497f9722a3daafe3b4186f6b6457e090600090a35050565b828054620001019062000199565b90600052602060002090601f01602090048101928262000125576000855562000170565b82601f106200014057805160ff191683800117855562000170565b8280016001018555821562000170579182015b828111156200017057825182559160200191906001019062000153565b506200017e92915062000182565b5090565b5b808211156200017e576000815560010162000183565b600181811c90821680620001ae57607f821691505b60208210811415620001d057634e487b7160e01b600052602260045260246000fd5b50919050565b61186e80620001e66000396000f3fe608060405234801561001057600080fd5b50600436106101165760003560e01c8063715018a6116100a2578063b88d4fde11610071578063b88d4fde14610239578063c87b56dd1461024c578063d0def5211461025f578063e985e9c514610272578063f2fde38b146102ae57600080fd5b8063715018a6146102055780638da5cb5b1461020d57806395d89b411461021e578063a22cb4651461022657600080fd5b806323b872dd116100e957806323b872dd1461019857806342842e0e146101ab57806342966c68146101be5780636352211e146101d157806370a08231146101e457600080fd5b806301ffc9a71461011b57806306fdde0314610143578063081812fc14610158578063095ea7b314610183575b600080fd5b61012e610129366004611553565b6102c1565b60405190151581526020015b60405180910390f35b61014b610313565b60405161013a919061163e565b61016b61016636600461158d565b6103a5565b6040516001600160a01b03909116815260200161013a565b610196610191366004611529565b6103cc565b005b6101966101a63660046113d3565b6104e7565b6101966101b93660046113d3565b610518565b6101966101cc36600461158d565b610533565b61016b6101df36600461158d565b61053f565b6101f76101f2366004611385565b61059f565b60405190815260200161013a565b610196610625565b6007546001600160a01b031661016b565b61014b610639565b61019661023436600461148b565b610648565b61019661024736600461140f565b610657565b61014b61025a36600461158d565b61068f565b6101f761026d3660046114c7565b6107a0565b61012e6102803660046113a0565b6001600160a01b03918216600090815260056020908152604080832093909416825291909152205460ff1690565b6101966102bc366004611385565b6107e0565b60006001600160e01b031982166380ac58cd60e01b14806102f257506001600160e01b03198216635b5e139f60e01b145b8061030d57506301ffc9a760e01b6001600160e01b03198316145b92915050565b60606000805461032290611760565b80601f016020809104026020016040519081016040528092919081815260200182805461034e90611760565b801561039b5780601f106103705761010080835404028352916020019161039b565b820191906000526020600020905b81548152906001019060200180831161037e57829003601f168201915b5050505050905090565b60006103b082610856565b506000908152600460205260409020546001600160a01b031690565b60006103d78261053f565b9050806001600160a01b0316836001600160a01b0316141561044a5760405162461bcd60e51b815260206004820152602160248201527f4552433732313a20617070726f76616c20746f2063757272656e74206f776e656044820152603960f91b60648201526084015b60405180910390fd5b336001600160a01b038216148061046657506104668133610280565b6104d85760405162461bcd60e51b815260206004820152603e60248201527f4552433732313a20617070726f76652063616c6c6572206973206e6f7420746f60448201527f6b656e206f776e6572206e6f7220617070726f76656420666f7220616c6c00006064820152608401610441565b6104e283836108b5565b505050565b6104f13382610923565b61050d5760405162461bcd60e51b8152600401610441906116a3565b6104e28383836109a1565b6104e283838360405180602001604052806000815250610657565b61053c81610b3d565b50565b6000818152600260205260408120546001600160a01b03168061030d5760405162461bcd60e51b8152602060048201526018602482015277115490cdcc8c4e881a5b9d985b1a59081d1bdad95b88125160421b6044820152606401610441565b60006001600160a01b0382166106095760405162461bcd60e51b815260206004820152602960248201527f4552433732313a2061646472657373207a65726f206973206e6f7420612076616044820152683634b21037bbb732b960b91b6064820152608401610441565b506001600160a01b031660009081526003602052604090205490565b61062d610b7d565b6106376000610bd7565b565b60606001805461032290611760565b610653338383610c29565b5050565b6106613383610923565b61067d5760405162461bcd60e51b8152600401610441906116a3565b61068984848484610cf8565b50505050565b606061069a82610856565b600082815260066020526040812080546106b390611760565b80601f01602080910402602001604051908101604052809291908181526020018280546106df90611760565b801561072c5780601f106107015761010080835404028352916020019161072c565b820191906000526020600020905b81548152906001019060200180831161070f57829003601f168201915b50505050509050600061074a60408051602081019091526000815290565b905080516000141561075d575092915050565b81511561078f5780826040516020016107779291906115d2565b60405160208183030381529060405292505050919050565b61079884610d2b565b949350505050565b60006107aa610b7d565b60006107b560085490565b90506107c18482610d9e565b6107cb8184610ee0565b6107d9600880546001019055565b9392505050565b6107e8610b7d565b6001600160a01b03811661084d5760405162461bcd60e51b815260206004820152602660248201527f4f776e61626c653a206e6577206f776e657220697320746865207a65726f206160448201526564647265737360d01b6064820152608401610441565b61053c81610bd7565b6000818152600260205260409020546001600160a01b031661053c5760405162461bcd60e51b8152602060048201526018602482015277115490cdcc8c4e881a5b9d985b1a59081d1bdad95b88125160421b6044820152606401610441565b600081815260046020526040902080546001600160a01b0319166001600160a01b03841690811790915581906108ea8261053f565b6001600160a01b03167f8c5be1e5ebec7d5bd14f71427d1e84f3dd0314c0f7b2291e5b200ac8c7c3b92560405160405180910390a45050565b60008061092f8361053f565b9050806001600160a01b0316846001600160a01b0316148061097657506001600160a01b0380821660009081526005602090815260408083209388168352929052205460ff165b806107985750836001600160a01b031661098f846103a5565b6001600160a01b031614949350505050565b826001600160a01b03166109b48261053f565b6001600160a01b031614610a185760405162461bcd60e51b815260206004820152602560248201527f4552433732313a207472616e736665722066726f6d20696e636f72726563742060448201526437bbb732b960d91b6064820152608401610441565b6001600160a01b038216610a7a5760405162461bcd60e51b8152602060048201526024808201527f4552433732313a207472616e7366657220746f20746865207a65726f206164646044820152637265737360e01b6064820152608401610441565b610a856000826108b5565b6001600160a01b0383166000908152600360205260408120805460019290610aae90849061171d565b90915550506001600160a01b0382166000908152600360205260408120805460019290610adc9084906116f1565b909155505060008181526002602052604080822080546001600160a01b0319166001600160a01b0386811691821790925591518493918716917fddf252ad1be2c89b69c2b068fc378daa952ba7f163c4a11628f55a4df523b3ef91a4505050565b610b4681610f7a565b60008181526006602052604090208054610b5f90611760565b15905061053c57600081815260066020526040812061053c91611220565b6007546001600160a01b031633146106375760405162461bcd60e51b815260206004820181905260248201527f4f776e61626c653a2063616c6c6572206973206e6f7420746865206f776e65726044820152606401610441565b600780546001600160a01b038381166001600160a01b0319831681179093556040519116919082907f8be0079c531659141344cd1fd0a4f28419497f9722a3daafe3b4186f6b6457e090600090a35050565b816001600160a01b0316836001600160a01b03161415610c8b5760405162461bcd60e51b815260206004820152601960248201527f4552433732313a20617070726f766520746f2063616c6c6572000000000000006044820152606401610441565b6001600160a01b03838116600081815260056020908152604080832094871680845294825291829020805460ff191686151590811790915591519182527f17307eab39ab6107e8899845ad3d59bd9653f200f220920489ca2b5937696c31910160405180910390a3505050565b610d038484846109a1565b610d0f84848484611015565b6106895760405162461bcd60e51b815260040161044190611651565b6060610d3682610856565b6000610d4d60408051602081019091526000815290565b90506000815111610d6d57604051806020016040528060008152506107d9565b80610d7784611122565b604051602001610d889291906115d2565b6040516020818303038152906040529392505050565b6001600160a01b038216610df45760405162461bcd60e51b815260206004820181905260248201527f4552433732313a206d696e7420746f20746865207a65726f20616464726573736044820152606401610441565b6000818152600260205260409020546001600160a01b031615610e595760405162461bcd60e51b815260206004820152601c60248201527f4552433732313a20746f6b656e20616c7265616479206d696e746564000000006044820152606401610441565b6001600160a01b0382166000908152600360205260408120805460019290610e829084906116f1565b909155505060008181526002602052604080822080546001600160a01b0319166001600160a01b03861690811790915590518392907fddf252ad1be2c89b69c2b068fc378daa952ba7f163c4a11628f55a4df523b3ef908290a45050565b6000828152600260205260409020546001600160a01b0316610f5b5760405162461bcd60e51b815260206004820152602e60248201527f45524337323155524953746f726167653a2055524920736574206f66206e6f6e60448201526d32bc34b9ba32b73a103a37b5b2b760911b6064820152608401610441565b600082815260066020908152604090912082516104e29284019061125a565b6000610f858261053f565b9050610f926000836108b5565b6001600160a01b0381166000908152600360205260408120805460019290610fbb90849061171d565b909155505060008281526002602052604080822080546001600160a01b0319169055518391906001600160a01b038416907fddf252ad1be2c89b69c2b068fc378daa952ba7f163c4a11628f55a4df523b3ef908390a45050565b60006001600160a01b0384163b1561111757604051630a85bd0160e11b81526001600160a01b0385169063150b7a0290611059903390899088908890600401611601565b602060405180830381600087803b15801561107357600080fd5b505af19250505080156110a3575060408051601f3d908101601f191682019092526110a091810190611570565b60015b6110fd573d8080156110d1576040519150601f19603f3d011682016040523d82523d6000602084013e6110d6565b606091505b5080516110f55760405162461bcd60e51b815260040161044190611651565b805181602001fd5b6001600160e01b031916630a85bd0160e11b149050610798565b506001949350505050565b6060816111465750506040805180820190915260018152600360fc1b602082015290565b8160005b8115611170578061115a8161179b565b91506111699050600a83611709565b915061114a565b60008167ffffffffffffffff81111561118b5761118b61180c565b6040519080825280601f01601f1916602001820160405280156111b5576020820181803683370190505b5090505b8415610798576111ca60018361171d565b91506111d7600a866117b6565b6111e29060306116f1565b60f81b8183815181106111f7576111f76117f6565b60200101906001600160f81b031916908160001a905350611219600a86611709565b94506111b9565b50805461122c90611760565b6000825580601f1061123c575050565b601f01602090049060005260206000209081019061053c91906112de565b82805461126690611760565b90600052602060002090601f01602090048101928261128857600085556112ce565b82601f106112a157805160ff19168380011785556112ce565b828001600101855582156112ce579182015b828111156112ce5782518255916020019190600101906112b3565b506112da9291506112de565b5090565b5b808211156112da57600081556001016112df565b600067ffffffffffffffff8084111561130e5761130e61180c565b604051601f8501601f19908116603f011681019082821181831017156113365761133661180c565b8160405280935085815286868601111561134f57600080fd5b858560208301376000602087830101525050509392505050565b80356001600160a01b038116811461138057600080fd5b919050565b60006020828403121561139757600080fd5b6107d982611369565b600080604083850312156113b357600080fd5b6113bc83611369565b91506113ca60208401611369565b90509250929050565b6000806000606084860312156113e857600080fd5b6113f184611369565b92506113ff60208501611369565b9150604084013590509250925092565b6000806000806080858703121561142557600080fd5b61142e85611369565b935061143c60208601611369565b925060408501359150606085013567ffffffffffffffff81111561145f57600080fd5b8501601f8101871361147057600080fd5b61147f878235602084016112f3565b91505092959194509250565b6000806040838503121561149e57600080fd5b6114a783611369565b9150602083013580151581146114bc57600080fd5b809150509250929050565b600080604083850312156114da57600080fd5b6114e383611369565b9150602083013567ffffffffffffffff8111156114ff57600080fd5b8301601f8101851361151057600080fd5b61151f858235602084016112f3565b9150509250929050565b6000806040838503121561153c57600080fd5b61154583611369565b946020939093013593505050565b60006020828403121561156557600080fd5b81356107d981611822565b60006020828403121561158257600080fd5b81516107d981611822565b60006020828403121561159f57600080fd5b5035919050565b600081518084526115be816020860160208601611734565b601f01601f19169290920160200192915050565b600083516115e4818460208801611734565b8351908301906115f8818360208801611734565b01949350505050565b6001600160a01b0385811682528416602082015260408101839052608060608201819052600090611634908301846115a6565b9695505050505050565b6020815260006107d960208301846115a6565b60208082526032908201527f4552433732313a207472616e7366657220746f206e6f6e20455243373231526560408201527131b2b4bb32b91034b6b83632b6b2b73a32b960711b606082015260800190565b6020808252602e908201527f4552433732313a2063616c6c6572206973206e6f7420746f6b656e206f776e6560408201526d1c881b9bdc88185c1c1c9bdd995960921b606082015260800190565b60008219821115611704576117046117ca565b500190565b600082611718576117186117e0565b500490565b60008282101561172f5761172f6117ca565b500390565b60005b8381101561174f578181015183820152602001611737565b838111156106895750506000910152565b600181811c9082168061177457607f821691505b6020821081141561179557634e487b7160e01b600052602260045260246000fd5b50919050565b60006000198214156117af576117af6117ca565b5060010190565b6000826117c5576117c56117e0565b500690565b634e487b7160e01b600052601160045260246000fd5b634e487b7160e01b600052601260045260246000fd5b634e487b7160e01b600052603260045260246000fd5b634e487b7160e01b600052604160045260246000fd5b6001600160e01b03198116811461053c57600080fdfea2646970667358221220ec081d61bd65d239650c28564dadbbc1f9b7d2b4ce9fb7a2217cf1a8e7ab032464736f6c63430008070033",
  "linkReferences": {},
  "deployedLinkReferences": {}
}