{
  "_format": "hh-sol-artifact-1",
  "contractName": "PecuniaLock",
  "sourceName": "contracts/PecuniaLock.sol",
  "abi": [
    {
      "inputs": [],
      "stateMutability": "nonpayable",
      "type": "constructor"
    },
    {
      "anonymous": false,
      "inputs": [
        {
          "indexed": false,
          "internalType": "uint256",
          "name": "amountAdded",
          "type": "uint256"
        },
        {
          "indexed": false,
          "internalType": "uint256",
          "name": "newBalance",
          "type": "uint256"
        },
        {
          "indexed": false,
          "internalType": "address",
          "name": "sender",
          "type": "address"
        }
      ],
      "name": "FundsAdded",
      "type": "event"
    },
    {
      "anonymous": false,
      "inputs": [
        {
          "indexed": false,
          "internalType": "uint256",
          "name": "amount",
          "type": "uint256"
        },
        {
          "indexed": false,
          "internalType": "address",
          "name": "heir",
          "type": "address"
        }
      ],
      "name": "FundsTransferred",
      "type": "event"
    },
    {
      "anonymous": false,
      "inputs": [
        {
          "indexed": true,
          "internalType": "address",
          "name": "sender",
          "type": "address"
        },
        {
          "indexed": true,
          "internalType": "address",
          "name": "heirAddress",
          "type": "address"
        },
        {
          "indexed": false,
          "internalType": "uint256",
          "name": "amount",
          "type": "uint256"
        }
      ],
      "name": "RechargeMatic",
      "type": "event"
    },
    {
      "anonymous": false,
      "inputs": [
        {
          "indexed": true,
          "internalType": "address",
          "name": "sender",
          "type": "address"
        },
        {
          "indexed": true,
          "internalType": "address",
          "name": "heirAddress",
          "type": "address"
        },
        {
          "indexed": false,
          "internalType": "address",
          "name": "nftAddress",
          "type": "address"
        }
      ],
      "name": "RechargeNft",
      "type": "event"
    },
    {
      "anonymous": false,
      "inputs": [
        {
          "indexed": true,
          "internalType": "bytes32",
          "name": "boxhash",
          "type": "bytes32"
        },
        {
          "indexed": true,
          "internalType": "address",
          "name": "user",
          "type": "address"
        }
      ],
      "name": "Register",
      "type": "event"
    },
    {
      "anonymous": false,
      "inputs": [
        {
          "indexed": true,
          "internalType": "address",
          "name": "user",
          "type": "address"
        },
        {
          "indexed": true,
          "internalType": "address",
          "name": "to",
          "type": "address"
        },
        {
          "indexed": false,
          "internalType": "uint256",
          "name": "amount",
          "type": "uint256"
        }
      ],
      "name": "WithdrawSigned",
      "type": "event"
    },
    {
      "inputs": [
        {
          "internalType": "bytes32",
          "name": "",
          "type": "bytes32"
        }
      ],
      "name": "boxhash2safebox",
      "outputs": [
        {
          "internalType": "bytes32",
          "name": "boxhash",
          "type": "bytes32"
        },
        {
          "internalType": "address",
          "name": "user",
          "type": "address"
        },
        {
          "internalType": "uint256",
          "name": "heirToInterval",
          "type": "uint256"
        },
        {
          "internalType": "uint256",
          "name": "lastTimeStamp",
          "type": "uint256"
        },
        {
          "internalType": "address",
          "name": "nftAddress",
          "type": "address"
        }
      ],
      "stateMutability": "view",
      "type": "function"
    },
    {
      "inputs": [
        {
          "internalType": "bytes",
          "name": "",
          "type": "bytes"
        }
      ],
      "name": "checkUpkeep",
      "outputs": [
        {
          "internalType": "bool",
          "name": "upkeepNeeded",
          "type": "bool"
        },
        {
          "internalType": "bytes",
          "name": "performData",
          "type": "bytes"
        }
      ],
      "stateMutability": "view",
      "type": "function"
    },
    {
      "inputs": [
        {
          "internalType": "address",
          "name": "owner",
          "type": "address"
        },
        {
          "internalType": "address",
          "name": "heir",
          "type": "address"
        }
      ],
      "name": "getHeirAmountFromOwner",
      "outputs": [
        {
          "internalType": "uint256",
          "name": "",
          "type": "uint256"
        }
      ],
      "stateMutability": "view",
      "type": "function"
    },
    {
      "inputs": [
        {
          "internalType": "bytes32",
          "name": "boxhash",
          "type": "bytes32"
        },
        {
          "internalType": "address",
          "name": "heir",
          "type": "address"
        }
      ],
      "name": "getHeirAmountFromOwner",
      "outputs": [
        {
          "internalType": "uint256",
          "name": "",
          "type": "uint256"
        }
      ],
      "stateMutability": "view",
      "type": "function"
    },
    {
      "inputs": [
        {
          "internalType": "bytes32",
          "name": "boxhash",
          "type": "bytes32"
        },
        {
          "internalType": "address",
          "name": "heir",
          "type": "address"
        }
      ],
      "name": "getHeirWithdrawCounterFromBoxHash",
      "outputs": [
        {
          "internalType": "bool",
          "name": "",
          "type": "bool"
        }
      ],
      "stateMutability": "view",
      "type": "function"
    },
    {
      "inputs": [
        {
          "internalType": "address",
          "name": "owner",
          "type": "address"
        },
        {
          "internalType": "address",
          "name": "heir",
          "type": "address"
        }
      ],
      "name": "getHeirWithdrawCounterFromOwner",
      "outputs": [
        {
          "internalType": "bool",
          "name": "",
          "type": "bool"
        }
      ],
      "stateMutability": "view",
      "type": "function"
    },
    {
      "inputs": [],
      "name": "getMaturedBoxes",
      "outputs": [
        {
          "internalType": "bytes32[]",
          "name": "",
          "type": "bytes32[]"
        }
      ],
      "stateMutability": "view",
      "type": "function"
    },
    {
      "inputs": [
        {
          "internalType": "bytes32",
          "name": "boxhash",
          "type": "bytes32"
        }
      ],
      "name": "getSafeBoxDetailsFromBoxHash",
      "outputs": [
        {
          "internalType": "bytes32",
          "name": "",
          "type": "bytes32"
        },
        {
          "internalType": "uint256",
          "name": "",
          "type": "uint256"
        },
        {
          "internalType": "uint256",
          "name": "",
          "type": "uint256"
        }
      ],
      "stateMutability": "view",
      "type": "function"
    },
    {
      "inputs": [
        {
          "internalType": "address",
          "name": "owner",
          "type": "address"
        }
      ],
      "name": "getSafeBoxDetailsFromOwner",
      "outputs": [
        {
          "internalType": "bytes32",
          "name": "",
          "type": "bytes32"
        },
        {
          "internalType": "uint256",
          "name": "",
          "type": "uint256"
        },
        {
          "internalType": "uint256",
          "name": "",
          "type": "uint256"
        }
      ],
      "stateMutability": "view",
      "type": "function"
    },
    {
      "inputs": [
        {
          "internalType": "bytes32",
          "name": "boxhash",
          "type": "bytes32"
        }
      ],
      "name": "getSafeBoxHeirsFromBoxHash",
      "outputs": [
        {
          "internalType": "address[]",
          "name": "",
          "type": "address[]"
        }
      ],
      "stateMutability": "view",
      "type": "function"
    },
    {
      "inputs": [
        {
          "internalType": "address",
          "name": "owner",
          "type": "address"
        }
      ],
      "name": "getSafeBoxHeirsFromOwner",
      "outputs": [
        {
          "internalType": "address[]",
          "name": "",
          "type": "address[]"
        }
      ],
      "stateMutability": "view",
      "type": "function"
    },
    {
      "inputs": [
        {
          "internalType": "address",
          "name": "owner",
          "type": "address"
        }
      ],
      "name": "getTimeLeftFromOwner",
      "outputs": [
        {
          "internalType": "uint256",
          "name": "",
          "type": "uint256"
        }
      ],
      "stateMutability": "view",
      "type": "function"
    },
    {
      "inputs": [
        {
          "internalType": "bytes32",
          "name": "boxhash",
          "type": "bytes32"
        },
        {
          "internalType": "address",
          "name": "heir",
          "type": "address"
        }
      ],
      "name": "heirIsValid",
      "outputs": [
        {
          "internalType": "bool",
          "name": "",
          "type": "bool"
        }
      ],
      "stateMutability": "view",
      "type": "function"
    },
    {
      "inputs": [],
      "name": "heirToken",
      "outputs": [
        {
          "internalType": "contract HeirToken",
          "name": "",
          "type": "address"
        }
      ],
      "stateMutability": "view",
      "type": "function"
    },
    {
      "inputs": [
        {
          "internalType": "address",
          "name": "",
          "type": "address"
        },
        {
          "internalType": "address",
          "name": "",
          "type": "address"
        },
        {
          "internalType": "uint256",
          "name": "",
          "type": "uint256"
        },
        {
          "internalType": "bytes",
          "name": "",
          "type": "bytes"
        }
      ],
      "name": "onERC721Received",
      "outputs": [
        {
          "internalType": "bytes4",
          "name": "",
          "type": "bytes4"
        }
      ],
      "stateMutability": "nonpayable",
      "type": "function"
    },
    {
      "inputs": [
        {
          "internalType": "bytes",
          "name": "performData",
          "type": "bytes"
        }
      ],
      "name": "performUpkeep",
      "outputs": [],
      "stateMutability": "nonpayable",
      "type": "function"
    },
    {
      "inputs": [
        {
          "internalType": "address",
          "name": "boxOwner",
          "type": "address"
        },
        {
          "internalType": "address",
          "name": "heirAddr",
          "type": "address"
        },
        {
          "internalType": "address",
          "name": "nftAddr",
          "type": "address"
        },
        {
          "internalType": "uint256[]",
          "name": "nftTokenIds",
          "type": "uint256[]"
        }
      ],
      "name": "rechargeWithAddress",
      "outputs": [
        {
          "internalType": "uint256",
          "name": "tokenId",
          "type": "uint256"
        }
      ],
      "stateMutability": "payable",
      "type": "function"
    },
    {
      "inputs": [
        {
          "internalType": "bytes32",
          "name": "boxhash",
          "type": "bytes32"
        },
        {
          "internalType": "uint256[8]",
          "name": "proof",
          "type": "uint256[8]"
        },
        {
          "internalType": "uint256",
          "name": "pswHash",
          "type": "uint256"
        },
        {
          "internalType": "uint256",
          "name": "allHash",
          "type": "uint256"
        },
        {
          "internalType": "uint256",
          "name": "interval",
          "type": "uint256"
        }
      ],
      "name": "register",
      "outputs": [],
      "stateMutability": "nonpayable",
      "type": "function"
    },
    {
      "inputs": [
        {
          "internalType": "uint256",
          "name": "",
          "type": "uint256"
        }
      ],
      "name": "usedProof",
      "outputs": [
        {
          "internalType": "bool",
          "name": "",
          "type": "bool"
        }
      ],
      "stateMutability": "view",
      "type": "function"
    },
    {
      "inputs": [
        {
          "internalType": "address",
          "name": "",
          "type": "address"
        }
      ],
      "name": "user2boxhash",
      "outputs": [
        {
          "internalType": "bytes32",
          "name": "",
          "type": "bytes32"
        }
      ],
      "stateMutability": "view",
      "type": "function"
    },
    {
      "inputs": [
        {
          "internalType": "uint256[8]",
          "name": "proof",
          "type": "uint256[8]"
        },
        {
          "internalType": "uint256",
          "name": "pswHash",
          "type": "uint256"
        },
        {
          "internalType": "uint256",
          "name": "allHash",
          "type": "uint256"
        },
        {
          "internalType": "address",
          "name": "boxOwner",
          "type": "address"
        }
      ],
      "name": "withdrawSignature",
      "outputs": [],
      "stateMutability": "nonpayable",
      "type": "function"
    },
    {
      "stateMutability": "payable",
      "type": "receive"
    }
  ],
  "bytecode": "0x60806040523480156200001157600080fd5b50604051620000209062000148565b604051809103906000f0801580156200003d573d6000803e3d6000fd5b50600080546001600160a01b0319166001600160a01b03929092169190911790556040516200006c9062000156565b604051809103906000f08015801562000089573d6000803e3d6000fd5b50600180546001600160a01b0319166001600160a01b039290921691821790556040805163d0def52160e01b81523060048201526024810191909152600d60448201526c23b2b732b9b4b9902a37b5b2b760991b606482015263d0def52190608401602060405180830381600087803b1580156200010657600080fd5b505af11580156200011b573d6000803e3d6000fd5b505050506040513d601f19601f8201168201806040525081019062000141919062000164565b506200017e565b61132a8062002b2f83390190565b611a548062003e5983390190565b6000602082840312156200017757600080fd5b5051919050565b6129a1806200018e6000396000f3fe60806040526004361061012d5760003560e01c8063691936aa116100ab578063a9a90fb51161006f578063a9a90fb514610554578063b61afe5614610576578063b8df0f42146105ae578063c9eabb31146105ce578063e4d3f5c3146105e1578063f1b852f61461062857600080fd5b8063691936aa146103ff5780636e04ff0d1461042c57806373f7ea881461045a57806391519dec146104ae578063a8cdbcef146104ce57600080fd5b8063280a0788116100f2578063280a0788146102f35780633601f527146103465780633c1bc03a146103745780634585e33b146103bd57806366ccf7ea146103df57600080fd5b80626fe81514610177578063150b7a02146101d65780631767ea0f1461021a5780631b0800731461026f57806323eca841146102c657600080fd5b366101725760408051348152476020820152338183015290517fc6f3fb0fec49e4877342d4625d77a632541f55b7aae0f9d0b34c69b3478706dc9181900360600190a1005b600080fd5b34801561018357600080fd5b506101c1610192366004612530565b60008281526003602090815260408083206001600160a01b038516845260060190915290205460ff1692915050565b60405190151581526020015b60405180910390f35b3480156101e257600080fd5b506102016101f136600461234c565b630a85bd0160e11b949350505050565b6040516001600160e01b031990911681526020016101cd565b34801561022657600080fd5b50610254610235366004612517565b6000908152600360205260409020805460048201546005909201549092565b604080519384526020840192909252908201526060016101cd565b34801561027b57600080fd5b506101c161028a36600461223e565b6001600160a01b039182166000908152600460209081526040808320548352600382528083209390941682526006909201909152205460ff1690565b3480156102d257600080fd5b506102e66102e1366004612517565b610658565b6040516101cd91906126a1565b3480156102ff57600080fd5b5061025461030e3660046121fd565b6001600160a01b0316600090815260046020818152604080842054845260039091529091208054918101546005909101549192909190565b34801561035257600080fd5b506103666103613660046121fd565b6106c7565b6040519081526020016101cd565b34801561038057600080fd5b506101c161038f366004612530565b60008281526003602090815260408083206001600160a01b0385168452600201909152902054151592915050565b3480156103c957600080fd5b506103dd6103d83660046125a0565b610700565b005b3480156103eb57600080fd5b506103dd6103fa366004612555565b61071e565b34801561040b57600080fd5b5061036661041a3660046121fd565b60046020526000908152604090205481565b34801561043857600080fd5b5061044c6104473660046125a0565b610b1a565b6040516101cd9291906127aa565b34801561046657600080fd5b5061036661047536600461223e565b6001600160a01b039182166000908152600460209081526040808320548352600382528083209390941682526002909201909152205490565b3480156104ba57600080fd5b506103dd6104c93660046124a8565b610b5b565b3480156104da57600080fd5b506105246104e9366004612517565b6003602052600090815260409020805460018201546004830154600584015460099094015492936001600160a01b0392831693919290911685565b604080519586526001600160a01b039485166020870152850192909252606084015216608082015260a0016101cd565b34801561056057600080fd5b50610569611232565b6040516101cd91906126ee565b34801561058257600080fd5b50600154610596906001600160a01b031681565b6040516001600160a01b0390911681526020016101cd565b3480156105ba57600080fd5b506102e66105c93660046121fd565b611335565b6103666105dc366004612277565b6113b6565b3480156105ed57600080fd5b506103666105fc366004612530565b60008281526003602090815260408083206001600160a01b038516845260020190915290205492915050565b34801561063457600080fd5b506101c1610643366004612517565b60056020526000908152604090205460ff1681565b6000818152600360209081526040918290206007018054835181840281018401909452808452606093928301828280156106bb57602002820191906000526020600020905b81546001600160a01b0316815260019091019060200180831161069d575b50505050509050919050565b6001600160a01b038116600090815260046020908152604080832054835260039091528120600501546106fa90426128a2565b92915050565b600061070e82840184612410565b905061071981611524565b505050565b6000858152600360209081526040808320338452600490925290912054156107a15760405162461bcd60e51b815260206004820152602b60248201527f506563756e69614c6f636b3a3a72656769737465723a206f6e6520757365722060448201526a0dedcca40e6c2cccac4def60ab1b60648201526084015b60405180910390fd5b80541561080b5760405162461bcd60e51b815260206004820152603260248201527f506563756e69614c6f636b3a3a72656769737465723a20626f78686173682068604482015271185cc81899595b881c9959da5cdd195c995960721b6064820152608401610798565b85843360405160200161083a92919091825260601b6bffffffffffffffffffffffff1916602082015260340190565b60405160208183030381529060405280519060200120146108a95760405162461bcd60e51b8152602060048201526024808201527f506563756e69614c6f636b3a3a72656769737465723a20626f78686173682065604482015263393937b960e11b6064820152608401610798565b60008054604080518082018252885181526020808a0151818301528251608080820185528b8501518286019081526060808e01518185015290835285518087018752828e0151815260a08e015181860152838501528551808701875260c08e0151815260e08e015181860152865192830187528c8352938201889052818601979097529586018990529251635fe8c13b60e01b81526001600160a01b0390941694635fe8c13b9461095f94929190600401612726565b60206040518083038186803b15801561097757600080fd5b505afa15801561098b573d6000803e3d6000fd5b505050506040513d601f19601f820116820180604052508101906109af91906124f5565b610a0b5760405162461bcd60e51b815260206004820152602760248201527f506563756e69614c6f636b3a3a72656769737465723a2076657269667950726f6044820152661bd98819985a5b60ca1b6064820152608401610798565b60008211610a725760405162461bcd60e51b815260206004820152602e60248201527f506563756e69614c6f636b3a3a72656769737465723a20696e74657276616c2060448201526d63616e6e6f74206265207a65726f60901b6064820152608401610798565b858155600180820180546001600160a01b0319163390811782556004808501869055426005860155600091825260205260408082208a905560028054948501815582527f405787fa12a823e0f2b7631cc41b3ba8828b3321ca811111fa75cd3aa3bb5ace909301899055905491516001600160a01b03929092169188917f1082cda15f9606da555bb7e9bf4eeee2f8e34abe85d3924bf9bacb716f8feca691a3505050505050565b600060606000610b28611232565b90506000815111925080604051602001610b4291906126ee565b6040516020818303038152906040529150509250929050565b336001600160a01b038216811415610bc95760405162461bcd60e51b815260206004820152603c602482015260008051602061294c83398151915260448201527f4f776e65722063616e6e6f7420776974686472617720616d6f756e74000000006064820152608401610798565b845160009081526005602052604090205460ff1615610c2b5760405162461bcd60e51b815260206004820152602a602482015260008051602061294c8339815191526044820152691c1c9bdbd9881d5cd95960b21b6064820152608401610798565b6001600160a01b0382166000908152600460209081526040918290205491518291610c7591889187910191825260601b6bffffffffffffffffffffffff1916602082015260340190565b6040516020818303038152906040528051906020012014610cdc5760405162461bcd60e51b815260206004820152602d602482015260008051602061294c83398151915260448201526c3839bba430b9b41032b93937b960991b6064820152608401610798565b60008181526003602090815260408083206001600160a01b0386168452600201909152902054610d535760405162461bcd60e51b815260206004820152602e602482015260008051602061294c83398151915260448201526d1a195a5c881b9bdd081d985b1a5960921b6064820152608401610798565b60008181526003602052604090208054610dc35760405162461bcd60e51b8152602060048201526038602482015260008051602061294c83398151915260448201527f73616665626f78206e6f742072656769737465722079657400000000000000006064820152608401610798565b6000816002016000856001600160a01b03166001600160a01b03168152602001908152602001600020549050610e216040518060400160405280601081526020016f30b6b7bab73a103bb4ba34323930bbb760811b81525082611b5d565b6000546040805180820182528a5181526020808c01518183015282516080810184528c8401518185019081526060808f015190830152815283518085019094526001600160a01b0390941693635fe8c13b939091820190808e6004602002015181526020018e600560088110610e9957610e996128ea565b60200201519052905260408051808201909152808d6006602002015181526020018d600760088110610ecd57610ecd6128ea565b60209081029190910151909152604080516080810182528e815291820188905260098901546001600160a01b031682820152606082018d9052516001600160e01b031960e087901b168152610f289493929190600401612726565b60206040518083038186803b158015610f4057600080fd5b505afa158015610f54573d6000803e3d6000fd5b505050506040513d601f19601f82011682018060405250810190610f7891906124f5565b610fd45760405162461bcd60e51b815260206004820152602760248201527f506563756e69614c6f636b3a3a77697468647261773a2076657269667950726f6044820152661bd98819985a5b60ca1b6064820152608401610798565b6001600160a01b03841660009081526003830160205260409020548061104c5760405162461bcd60e51b815260206004820152602760248201527f506563756e69614c6f636b3a3a77697468647261773a20746f6b656e206964206044820152661a5b9d985b1a5960ca1b6064820152608401610798565b60015460405163020604bf60e21b81526004810183905230916001600160a01b03169063081812fc9060240160206040518083038186803b15801561109057600080fd5b505afa1580156110a4573d6000803e3d6000fd5b505050506040513d601f19601f820116820180604052508101906110c89190612221565b6001600160a01b03161461111e5760405162461bcd60e51b815260206004820181905260248201527f417070726f76616c20666f72204e465420546f6b656e206e6f7420676976656e6044820152606401610798565b600154604051630852cd8d60e31b8152600481018390526001600160a01b03909116906342966c6890602401600060405180830381600087803b15801561116457600080fd5b505af1158015611178573d6000803e3d6000fd5b505050506001600560008b600060088110611195576111956128ea565b6020908102919091015182528181019290925260409081016000908120805494151560ff199586161790556001600160a01b03808a16808352600689019094529082902080549094166001908117909455928601549051919216907f2886d3a939fdefc4ab38e6b3413f0240ecd7a2f0b87072a44f0a177efaedd4839061121f9086815260200190565b60405180910390a3505050505050505050565b60025460609060009067ffffffffffffffff81111561125357611253612900565b60405190808252806020026020018201604052801561127c578160200160208202803683370190505b5090506000805b600254811015611321576000600282815481106112a2576112a26128ea565b90600052602060002001549050600060036000838152602001908152602001600020905080600401548160050154426112db91906128a2565b1061130c57818585815181106112f3576112f36128ea565b602090810291909101015283611308816128b9565b9450505b50508080611319906128b9565b915050611283565b50600254811461132f578082525b50919050565b6001600160a01b038116600090815260046020908152604080832054835260038252918290206007018054835181840281018401909452808452606093928301828280156106bb576020028201919060005260206000209081546001600160a01b0316815260019091019060200180831161069d5750505050509050919050565b6000336001600160a01b038616146114335760405162461bcd60e51b8152602060048201526046602482015260008051602061292c83398151915260448201527f3a206f6e6c79206f776e65722063616e2061737369676e2066756e647320746f60648201526520686569727360d01b608482015260a401610798565b6001600160a01b03841661149d5760405162461bcd60e51b815260206004820152603a602482015260008051602061292c83398151915260448201527f3a20486569722063616e6e6f74206265203020616464726573730000000000006064820152608401610798565b836001600160a01b0316856001600160a01b0316141561150c5760405162461bcd60e51b8152602060048201526036602482015260008051602061292c8339815191526044820152751d1027bbb732b91031b0b73737ba103132903432b4b960511b6064820152608401610798565b3461151a8686838787611ba2565b9695505050505050565b60005b8151811015611b5957600060036000848481518110611548576115486128ea565b602002602001015181526020019081526020016000206007018054806020026020016040519081016040528092919081815260200182805480156115b557602002820191906000526020600020905b81546001600160a01b03168152600190910190602001808311611597575b5050505050905060005b8151811015611b4457600360008585815181106115de576115de6128ea565b60200260200101518152602001908152602001600020600601600083838151811061160b5761160b6128ea565b6020908102919091018101516001600160a01b031682528101919091526040016000205460ff1680156116a757506003600085858151811061164f5761164f6128ea565b60200260200101518152602001908152602001600020600401546003600086868151811061167f5761167f6128ea565b6020026020010151815260200190815260200160002060050154426116a491906128a2565b10155b15611b32576000600360008686815181106116c4576116c46128ea565b6020026020010151815260200190815260200160002060020160008484815181106116f1576116f16128ea565b60200260200101516001600160a01b03166001600160a01b0316815260200190815260200160002054905060008111156118c5576117706040518060400160405280600f81526020016e3830bcb4b7339030b6ba16103a379d60891b81525082858581518110611763576117636128ea565b6020026020010151611dd7565b6000838381518110611784576117846128ea565b60200260200101516001600160a01b03166108fc839081150290604051600060405180830381858888f19350505050905080156118c3576000600360008888815181106117d3576117d36128ea565b602002602001015181526020019081526020016000206002016000868681518110611800576118006128ea565b60200260200101516001600160a01b03166001600160a01b031681526020019081526020016000208190555061185e60405180604001604052806011815260200170119d5b991cc8151c985b9cd9995c9c9959607a1b815250611e1e565b7fd0107046e9d9bb8140de7842695f5146ef44c52ca4577f579f8c5cba381f13ca82858581518110611892576118926128ea565b60200260200101516040516118ba9291909182526001600160a01b0316602082015260400190565b60405180910390a15b505b60006001600160a01b0316600360008787815181106118e6576118e66128ea565b6020908102919091018101518252810191909152604001600020600901546001600160a01b031614611b305760005b6003600087878151811061192b5761192b6128ea565b602002602001015181526020019081526020016000206008016000858581518110611958576119586128ea565b60200260200101516001600160a01b03166001600160a01b0316815260200190815260200160002080549050811015611b2e57600360008787815181106119a1576119a16128ea565b6020026020010151815260200190815260200160002060090160009054906101000a90046001600160a01b03166001600160a01b03166342842e0e308686815181106119ef576119ef6128ea565b6020026020010151600360008b8b81518110611a0d57611a0d6128ea565b602002602001015181526020019081526020016000206008016000898981518110611a3a57611a3a6128ea565b60200260200101516001600160a01b03166001600160a01b031681526020019081526020016000208581548110611a7357611a736128ea565b6000918252602090912001546040516001600160e01b031960e086901b1681526001600160a01b0393841660048201529290911660248301526044820152606401600060405180830381600087803b158015611ace57600080fd5b505af1158015611ae2573d6000803e3d6000fd5b50505050611b1c6040518060400160405280601581526020017413dddb995c88139195081d1c985b9cd999995c9959605a1b815250611e1e565b80611b26816128b9565b915050611915565b505b505b80611b3c816128b9565b9150506115bf565b50508080611b51906128b9565b915050611527565b5050565b611b598282604051602401611b739291906127e0565b60408051601f198184030181529190526020810180516001600160e01b03166309710a9d60e41b179052611e64565b6001600160a01b03851660009081526004602052604081205480611c1c5760405162461bcd60e51b815260206004820152603a602482015260008051602061292c83398151915260448201527f3a2073616665626f78206e6f74207265676973746572207965740000000000006064820152608401610798565b60008181526003602052604090208515611c6f57611c3c88838989611e85565b611c6f60405180604001604052806011815260200170616d6f756e74206465706f73697465643d60781b81525087611b5d565b6001600160a01b03851615801590611c85575060015b15611cf65760098101546001600160a01b0316611cba576009810180546001600160a01b0319166001600160a01b0387161790555b611cc78883898888611f17565b611cf66040518060400160405280600e81526020016d1391951cc819195c1bdcda5d195960921b815250611e1e565b6001546040805163d0def52160e01b81526001600160a01b038a8116600483015260248201929092526000604482015291169063d0def52190606401602060405180830381600087803b158015611d4c57600080fd5b505af1158015611d60573d6000803e3d6000fd5b505050506040513d601f19601f82011682018060405250810190611d849190612612565b6001600160a01b0388166000818152600384016020908152604082208490556007909401805460018101825590825293902090920180546001600160a01b03191690921790915591505095945050505050565b610719838383604051602401611def93929190612802565b60408051601f198184030181529190526020810180516001600160e01b031663e3849f7960e01b179052611e64565b611e6181604051602401611e3291906127cd565b60408051601f198184030181529190526020810180516001600160e01b031663104c13eb60e21b179052611e64565b50565b80516a636f6e736f6c652e6c6f67602083016000808483855afa5050505050565b60008381526003602090815260408083206001600160a01b0386168452600281019092528220805491928492611ebc90849061288a565b92505081905550826001600160a01b0316856001600160a01b03167f8f6656c43e8d5d6f44d70129ab4b94c5d5d9502c924bc5de7838cc5181911b1284604051611f0891815260200190565b60405180910390a35050505050565b6000848152600360205260408120905b825181101561213557306001600160a01b0316846001600160a01b031663081812fc858481518110611f5b57611f5b6128ea565b60200260200101516040518263ffffffff1660e01b8152600401611f8191815260200190565b60206040518083038186803b158015611f9957600080fd5b505afa158015611fad573d6000803e3d6000fd5b505050506040513d601f19601f82011682018060405250810190611fd19190612221565b6001600160a01b0316146120415760405162461bcd60e51b815260206004820152603160248201527f506563756e69614c6f636b3a3a5f72656368617267654f664e66743a204e465460448201527008185c1c1c9bdd985b081b9bdd081cd95d607a1b6064820152608401610798565b836001600160a01b03166342842e0e8830868581518110612064576120646128ea565b60209081029190910101516040516001600160e01b031960e086901b1681526001600160a01b0393841660048201529290911660248301526044820152606401600060405180830381600087803b1580156120be57600080fd5b505af11580156120d2573d6000803e3d6000fd5b505050506001600160a01b038516600090815260088301602052604090208351849083908110612104576121046128ea565b602090810291909101810151825460018101845560009384529190922001558061212d816128b9565b915050611f27565b506040516001600160a01b03848116825280861691908816907f99c28593372d33b0a81876848bd002f9e2e4ec27e23cb79bdb3946e534e9f1f49060200160405180910390a3505050505050565b600082601f83011261219457600080fd5b60405161010080820182811067ffffffffffffffff821117156121b9576121b9612900565b60405281848281018710156121cd57600080fd5b600092505b60088310156121f2578035825260019290920191602091820191016121d2565b509195945050505050565b60006020828403121561220f57600080fd5b813561221a81612916565b9392505050565b60006020828403121561223357600080fd5b815161221a81612916565b6000806040838503121561225157600080fd5b823561225c81612916565b9150602083013561226c81612916565b809150509250929050565b6000806000806080858703121561228d57600080fd5b843561229881612916565b93506020858101356122a981612916565b935060408601356122b981612916565b9250606086013567ffffffffffffffff8111156122d557600080fd5b8601601f810188136122e657600080fd5b80356122f96122f482612866565b612835565b8082825284820191508484018b868560051b870101111561231957600080fd5b600094505b8385101561233c57803583526001949094019391850191850161231e565b50979a9699509497505050505050565b6000806000806080858703121561236257600080fd5b843561236d81612916565b935060208581013561237e81612916565b935060408601359250606086013567ffffffffffffffff808211156123a257600080fd5b818801915088601f8301126123b657600080fd5b8135818111156123c8576123c8612900565b6123da601f8201601f19168501612835565b915080825289848285010111156123f057600080fd5b808484018584013760008482840101525080935050505092959194509250565b6000602080838503121561242357600080fd5b823567ffffffffffffffff81111561243a57600080fd5b8301601f8101851361244b57600080fd5b80356124596122f482612866565b80828252848201915084840188868560051b870101111561247957600080fd5b600094505b8385101561249c57803583526001949094019391850191850161247e565b50979650505050505050565b60008060008061016085870312156124bf57600080fd5b6124c98686612183565b9350610100850135925061012085013591506101408501356124ea81612916565b939692955090935050565b60006020828403121561250757600080fd5b8151801515811461221a57600080fd5b60006020828403121561252957600080fd5b5035919050565b6000806040838503121561254357600080fd5b82359150602083013561226c81612916565b6000806000806000610180868803121561256e57600080fd5b8535945061257f8760208801612183565b94979496505050506101208301359261014081013592610160909101359150565b600080602083850312156125b357600080fd5b823567ffffffffffffffff808211156125cb57600080fd5b818501915085601f8301126125df57600080fd5b8135818111156125ee57600080fd5b86602082850101111561260057600080fd5b60209290920196919550909350505050565b60006020828403121561262457600080fd5b5051919050565b8060005b600281101561264e57815184526020938401939091019060010161262f565b50505050565b6000815180845260005b8181101561267a5760208185018101518683018201520161265e565b8181111561268c576000602083870101525b50601f01601f19169290920160200192915050565b6020808252825182820181905260009190848201906040850190845b818110156126e25783516001600160a01b0316835292840192918401916001016126bd565b50909695505050505050565b6020808252825182820181905260009190848201906040850190845b818110156126e25783518352928401929184019160010161270a565b6101808101612735828761262b565b60408083018660005b60028110156127655761275283835161262b565b918301916020919091019060010161273e565b5050505061277660c083018561262b565b61010082018360005b600481101561279e57815183526020928301929091019060010161277f565b50505095945050505050565b82151581526040602082015260006127c56040830184612654565b949350505050565b60208152600061221a6020830184612654565b6040815260006127f36040830185612654565b90508260208301529392505050565b6060815260006128156060830186612654565b6020830194909452506001600160a01b0391909116604090910152919050565b604051601f8201601f1916810167ffffffffffffffff8111828210171561285e5761285e612900565b604052919050565b600067ffffffffffffffff82111561288057612880612900565b5060051b60200190565b6000821982111561289d5761289d6128d4565b500190565b6000828210156128b4576128b46128d4565b500390565b60006000198214156128cd576128cd6128d4565b5060010190565b634e487b7160e01b600052601160045260246000fd5b634e487b7160e01b600052603260045260246000fd5b634e487b7160e01b600052604160045260246000fd5b6001600160a01b0381168114611e6157600080fdfe506563756e69614c6f636b3a3a72656368617267655769746841646472657373506563756e69614c6f636b3a3a77697468647261775369676e61747572653a20a2646970667358221220cdcd6a177bf2883504922ec58735fd9d1bed37c0cc7ce92aedb41ecced59724764736f6c63430008070033608060405234801561001057600080fd5b5061130a806100206000396000f3fe608060405234801561001057600080fd5b506004361061002b5760003560e01c80635fe8c13b14610030575b600080fd5b61004361003e3660046110ae565b610057565b604051901515815260200160405180910390f35b6000610061610f1c565b60408051808201825287518152602080890151818301529083528151608080820184528851518285019081528951840151606084015282528351808501855289840180515182525184015181850152828401528483019190915282518084018452875181528783015181840152848401528251600480825260a0820190945260009390929091908301908036833701905050905060005b600481101561014757848160048110610113576101136112a8565b602002015182828151811061012a5761012a6112a8565b60209081029190910101528061013f81611255565b9150506100f8565b506101528183610170565b61016157600192505050610168565b6000925050505b949350505050565b60007f30644e72e131a029b85045b68181585d2833e84879b9709143e1f593f00000018161019c610367565b9050806080015151855160016101b29190611207565b146101f95760405162461bcd60e51b81526020600482015260126024820152711d995c9a599a595c8b5898590b5a5b9c1d5d60721b60448201526064015b60405180910390fd5b604080518082019091526000808252602082018190525b86518110156102ea578387828151811061022c5761022c6112a8565b6020026020010151106102815760405162461bcd60e51b815260206004820152601f60248201527f76657269666965722d6774652d736e61726b2d7363616c61722d6669656c640060448201526064016101f0565b6102d6826102d1856080015184600161029a9190611207565b815181106102aa576102aa6112a8565b60200260200101518a85815181106102c4576102c46112a8565b6020026020010151610867565b610903565b9150806102e281611255565b915050610210565b50610313818360800151600081518110610306576103066112a8565b6020026020010151610903565b9050610349610325866000015161099b565b8660200151846000015185602001518587604001518b604001518960600151610a3a565b6103595760019350505050610361565b600093505050505b92915050565b61036f610f6d565b6040805180820182527f21422b2408b853ee5ab3cd70d53bf4e8e696b0bb0137ae0133dae884c208fe1c81527f0c448741b741709179882cbc3996117116af721e5581f663a0a30af06d5013006020808301919091529083528151608080820184527f15d7e7d4fae0e70b3e289b463ef53c36a173467d7559b93bf4ef289a03bb3d3b8285019081527f2a0f57de765bdec8fb1716c17f210f9a6006a5147c5edee2e649a6bd0fd244bf606080850191909152908352845180860186527f0a7a3beb796b0f91cab050314090b1bce5356ac279e9a5fa9033b6f381bd4bb281527f27eee70097b89f7426a46d05d954d458496f97ad8a4da9e15deab303e32213ff818601528385015285840192909252835180820185527f198e9393920d483a7260bfb731fb5d25f1aa493335a9e71297e485b7aef312c28186019081527f1800deef121f1e76426a00665e5c4479674322d4f75edadd46debd5cd992f6ed828501528152845180860186527f090689d0585ff075ec9e99ad690c3395bc4b313370b38ef355acdadcd122975b81527f12c85ea5db8c6deb4aab71808dcb408fe3d1e7690c43d37b4ce6cc0166fa7daa818601528185015285850152835190810184527f1c879b5f89479ee022043f6a0976197eee5f12ce150d72a5ac43c42ef90a20bf8185019081527f22ff9a1280dcdc4aa19d2d913c0f93a4ecbf8dffd8e58e0d10a7487204c63d9b828401528152835180850185527f24d8109cc21052cc777bc83589de64fe0b4871d86ee356e292740c5066bca0ba81527f236bd0c0807cff8249120f0c2e359f607680c3ecbb2558b09de83dc13c0a35398185015281840152908401528151600580825260c08201909352919082015b60408051808201909152600080825260208201528152602001906001900390816105ea57505060808201908152604080518082019091527f0e31d911df35f4d1912ecf030b25c46af124f09690b4e878b1273ea326741fc181527f0b22e5050304c658fe0f8c30abafb9e1d015ef2e0d259c1a88abb7276bb1f2a760208201529051805160009061067d5761067d6112a8565b602002602001018190525060405180604001604052807f19cf58a1006f7f0d0676e707b5df89a84c7bb1c269ce899d45156994a220f82881526020017f2a686532b984bde289463d2fc99f5c6d31a9267ecd604251643ff467eeec24aa81525081608001516001815181106106f4576106f46112a8565b602002602001018190525060405180604001604052807f03630fa4cb2e41183e798461e83ee14cedd11d08699f0213c4be395e75f1403281526020017f075c2a2bcd013f90d876874e46c4dc2929a8799a3ede67ec767e0203e4c95f76815250816080015160028151811061076b5761076b6112a8565b602002602001018190525060405180604001604052807f1d9f238dc6d3554d1887c49dbedfca63e41bc60ae996073b77b79cecdb1dc4c381526020017f09c20849ba6cd24e83e2ab8376d7d4228dd56d52f6aefa60c2b55c4dc4c211a981525081608001516003815181106107e2576107e26112a8565b602002602001018190525060405180604001604052807f19972f0c34bb5f2b982562a2e17c29fe7adad982c2c92b9155a3af741e1634e381526020017f2c595cc21a3898b3ff1b42091abcdfddbafb9818c0e778ced87266735832d7d98152508160800151600481518110610859576108596112a8565b602002602001018190525090565b6040805180820190915260008082526020820152610883610fbe565b835181526020808501519082015260408101839052600060608360808460076107d05a03fa90508080156108b6576108b8565bfe5b50806108fb5760405162461bcd60e51b81526020600482015260126024820152711c185a5c9a5b99cb5b5d5b0b59985a5b195960721b60448201526064016101f0565b505092915050565b604080518082019091526000808252602082015261091f610fdc565b8351815260208085015181830152835160408301528301516060808301919091526000908360c08460066107d05a03fa90508080156108b65750806108fb5760405162461bcd60e51b81526020600482015260126024820152711c185a5c9a5b99cb5859190b59985a5b195960721b60448201526064016101f0565b604080518082019091526000808252602082015281517f30644e72e131a029b85045b68181585d97816a916871ca8d3c208c16d87cfd47901580156109e257506020830151155b15610a025750506040805180820190915260008082526020820152919050565b604051806040016040528084600001518152602001828560200151610a279190611270565b610a31908461123e565b90529392505050565b60408051600480825260a08201909252600091829190816020015b6040805180820190915260008082526020820152815260200190600190039081610a5557505060408051600480825260a0820190925291925060009190602082015b610a9f610ffa565b815260200190600190039081610a975790505090508a82600081518110610ac857610ac86112a8565b60200260200101819052508882600181518110610ae757610ae76112a8565b60200260200101819052508682600281518110610b0657610b066112a8565b60200260200101819052508482600381518110610b2557610b256112a8565b60200260200101819052508981600081518110610b4457610b446112a8565b60200260200101819052508781600181518110610b6357610b636112a8565b60200260200101819052508581600281518110610b8257610b826112a8565b60200260200101819052508381600381518110610ba157610ba16112a8565b6020026020010181905250610bb68282610bc5565b9b9a5050505050505050505050565b60008151835114610c115760405162461bcd60e51b81526020600482015260166024820152751c185a5c9a5b99cb5b195b99dd1a1ccb59985a5b195960521b60448201526064016101f0565b82516000610c2082600661121f565b905060008167ffffffffffffffff811115610c3d57610c3d6112be565b604051908082528060200260200182016040528015610c66578160200160208202803683370190505b50905060005b83811015610ea157868181518110610c8657610c866112a8565b60200260200101516000015182826006610ca0919061121f565b610cab906000611207565b81518110610cbb57610cbb6112a8565b602002602001018181525050868181518110610cd957610cd96112a8565b60200260200101516020015182826006610cf3919061121f565b610cfe906001611207565b81518110610d0e57610d0e6112a8565b602002602001018181525050858181518110610d2c57610d2c6112a8565b6020908102919091010151515182610d4583600661121f565b610d50906002611207565b81518110610d6057610d606112a8565b602002602001018181525050858181518110610d7e57610d7e6112a8565b60209081029190910181015151015182610d9983600661121f565b610da4906003611207565b81518110610db457610db46112a8565b602002602001018181525050858181518110610dd257610dd26112a8565b602002602001015160200151600060028110610df057610df06112a8565b602002015182610e0183600661121f565b610e0c906004611207565b81518110610e1c57610e1c6112a8565b602002602001018181525050858181518110610e3a57610e3a6112a8565b602002602001015160200151600160028110610e5857610e586112a8565b602002015182610e6983600661121f565b610e74906005611207565b81518110610e8457610e846112a8565b602090810291909101015280610e9981611255565b915050610c6c565b50610eaa61101a565b6000602082602086026020860160086107d05a03fa90508080156108b6575080610f0e5760405162461bcd60e51b81526020600482015260156024820152741c185a5c9a5b99cb5bdc18dbd9194b59985a5b1959605a1b60448201526064016101f0565b505115159695505050505050565b6040805160a081019091526000606082018181526080830191909152815260208101610f46610ffa565b8152602001610f68604051806040016040528060008152602001600081525090565b905290565b6040805160e08101909152600060a0820181815260c0830191909152815260208101610f97610ffa565b8152602001610fa4610ffa565b8152602001610fb1610ffa565b8152602001606081525090565b60405180606001604052806003906020820280368337509192915050565b60405180608001604052806004906020820280368337509192915050565b604051806040016040528061100d611038565b8152602001610f68611038565b60405180602001604052806001906020820280368337509192915050565b60405180604001604052806002906020820280368337509192915050565b600082601f83011261106757600080fd5b61106f61119f565b80838560408601111561108157600080fd5b60005b60028110156110a3578135845260209384019390910190600101611084565b509095945050505050565b6000806000806101808086880312156110c657600080fd5b6110d08787611056565b9450604087605f8801126110e357600080fd5b6110eb61119f565b8082890160c08a018b81111561110057600080fd5b60005b600281101561112a576111168d84611056565b855260209094019391850191600101611103565b508298506111388c82611056565b975050505050508661011f87011261114f57600080fd5b6111576111d6565b80610100880189848a01111561116c57600080fd5b600093505b600484101561119157803583526001939093019260209283019201611171565b509598949750929550505050565b6040805190810167ffffffffffffffff811182821017156111d057634e487b7160e01b600052604160045260246000fd5b60405290565b6040516080810167ffffffffffffffff811182821017156111d057634e487b7160e01b600052604160045260246000fd5b6000821982111561121a5761121a611292565b500190565b600081600019048311821515161561123957611239611292565b500290565b60008282101561125057611250611292565b500390565b600060001982141561126957611269611292565b5060010190565b60008261128d57634e487b7160e01b600052601260045260246000fd5b500690565b634e487b7160e01b600052601160045260246000fd5b634e487b7160e01b600052603260045260246000fd5b634e487b7160e01b600052604160045260246000fdfea26469706673582212201023eb81fd25c1105fb7cf85c488ef87ef939fb8b7a74c14922339cdf6d9593e64736f6c6343000807003360806040523480156200001157600080fd5b50604051806040016040528060048152602001632432b4b960e11b815250604051806040016040528060048152602001632422a4a960e11b815250816000908051906020019062000064929190620000f3565b5080516200007a906001906020840190620000f3565b50505062000097620000916200009d60201b60201c565b620000a1565b620001d6565b3390565b600780546001600160a01b038381166001600160a01b0319831681179093556040519116919082907f8be0079c531659141344cd1fd0a4f28419497f9722a3daafe3b4186f6b6457e090600090a35050565b828054620001019062000199565b90600052602060002090601f01602090048101928262000125576000855562000170565b82601f106200014057805160ff191683800117855562000170565b8280016001018555821562000170579182015b828111156200017057825182559160200191906001019062000153565b506200017e92915062000182565b5090565b5b808211156200017e576000815560010162000183565b600181811c90821680620001ae57607f821691505b60208210811415620001d057634e487b7160e01b600052602260045260246000fd5b50919050565b61186e80620001e66000396000f3fe608060405234801561001057600080fd5b50600436106101165760003560e01c8063715018a6116100a2578063b88d4fde11610071578063b88d4fde14610239578063c87b56dd1461024c578063d0def5211461025f578063e985e9c514610272578063f2fde38b146102ae57600080fd5b8063715018a6146102055780638da5cb5b1461020d57806395d89b411461021e578063a22cb4651461022657600080fd5b806323b872dd116100e957806323b872dd1461019857806342842e0e146101ab57806342966c68146101be5780636352211e146101d157806370a08231146101e457600080fd5b806301ffc9a71461011b57806306fdde0314610143578063081812fc14610158578063095ea7b314610183575b600080fd5b61012e610129366004611553565b6102c1565b60405190151581526020015b60405180910390f35b61014b610313565b60405161013a919061163e565b61016b61016636600461158d565b6103a5565b6040516001600160a01b03909116815260200161013a565b610196610191366004611529565b6103cc565b005b6101966101a63660046113d3565b6104e7565b6101966101b93660046113d3565b610518565b6101966101cc36600461158d565b610533565b61016b6101df36600461158d565b61053f565b6101f76101f2366004611385565b61059f565b60405190815260200161013a565b610196610625565b6007546001600160a01b031661016b565b61014b610639565b61019661023436600461148b565b610648565b61019661024736600461140f565b610657565b61014b61025a36600461158d565b61068f565b6101f761026d3660046114c7565b6107a0565b61012e6102803660046113a0565b6001600160a01b03918216600090815260056020908152604080832093909416825291909152205460ff1690565b6101966102bc366004611385565b6107e0565b60006001600160e01b031982166380ac58cd60e01b14806102f257506001600160e01b03198216635b5e139f60e01b145b8061030d57506301ffc9a760e01b6001600160e01b03198316145b92915050565b60606000805461032290611760565b80601f016020809104026020016040519081016040528092919081815260200182805461034e90611760565b801561039b5780601f106103705761010080835404028352916020019161039b565b820191906000526020600020905b81548152906001019060200180831161037e57829003601f168201915b5050505050905090565b60006103b082610856565b506000908152600460205260409020546001600160a01b031690565b60006103d78261053f565b9050806001600160a01b0316836001600160a01b0316141561044a5760405162461bcd60e51b815260206004820152602160248201527f4552433732313a20617070726f76616c20746f2063757272656e74206f776e656044820152603960f91b60648201526084015b60405180910390fd5b336001600160a01b038216148061046657506104668133610280565b6104d85760405162461bcd60e51b815260206004820152603e60248201527f4552433732313a20617070726f76652063616c6c6572206973206e6f7420746f60448201527f6b656e206f776e6572206e6f7220617070726f76656420666f7220616c6c00006064820152608401610441565b6104e283836108b5565b505050565b6104f13382610923565b61050d5760405162461bcd60e51b8152600401610441906116a3565b6104e28383836109a1565b6104e283838360405180602001604052806000815250610657565b61053c81610b3d565b50565b6000818152600260205260408120546001600160a01b03168061030d5760405162461bcd60e51b8152602060048201526018602482015277115490cdcc8c4e881a5b9d985b1a59081d1bdad95b88125160421b6044820152606401610441565b60006001600160a01b0382166106095760405162461bcd60e51b815260206004820152602960248201527f4552433732313a2061646472657373207a65726f206973206e6f7420612076616044820152683634b21037bbb732b960b91b6064820152608401610441565b506001600160a01b031660009081526003602052604090205490565b61062d610b7d565b6106376000610bd7565b565b60606001805461032290611760565b610653338383610c29565b5050565b6106613383610923565b61067d5760405162461bcd60e51b8152600401610441906116a3565b61068984848484610cf8565b50505050565b606061069a82610856565b600082815260066020526040812080546106b390611760565b80601f01602080910402602001604051908101604052809291908181526020018280546106df90611760565b801561072c5780601f106107015761010080835404028352916020019161072c565b820191906000526020600020905b81548152906001019060200180831161070f57829003601f168201915b50505050509050600061074a60408051602081019091526000815290565b905080516000141561075d575092915050565b81511561078f5780826040516020016107779291906115d2565b60405160208183030381529060405292505050919050565b61079884610d2b565b949350505050565b60006107aa610b7d565b60006107b560085490565b90506107c18482610d9e565b6107cb8184610ee0565b6107d9600880546001019055565b9392505050565b6107e8610b7d565b6001600160a01b03811661084d5760405162461bcd60e51b815260206004820152602660248201527f4f776e61626c653a206e6577206f776e657220697320746865207a65726f206160448201526564647265737360d01b6064820152608401610441565b61053c81610bd7565b6000818152600260205260409020546001600160a01b031661053c5760405162461bcd60e51b8152602060048201526018602482015277115490cdcc8c4e881a5b9d985b1a59081d1bdad95b88125160421b6044820152606401610441565b600081815260046020526040902080546001600160a01b0319166001600160a01b03841690811790915581906108ea8261053f565b6001600160a01b03167f8c5be1e5ebec7d5bd14f71427d1e84f3dd0314c0f7b2291e5b200ac8c7c3b92560405160405180910390a45050565b60008061092f8361053f565b9050806001600160a01b0316846001600160a01b0316148061097657506001600160a01b0380821660009081526005602090815260408083209388168352929052205460ff165b806107985750836001600160a01b031661098f846103a5565b6001600160a01b031614949350505050565b826001600160a01b03166109b48261053f565b6001600160a01b031614610a185760405162461bcd60e51b815260206004820152602560248201527f4552433732313a207472616e736665722066726f6d20696e636f72726563742060448201526437bbb732b960d91b6064820152608401610441565b6001600160a01b038216610a7a5760405162461bcd60e51b8152602060048201526024808201527f4552433732313a207472616e7366657220746f20746865207a65726f206164646044820152637265737360e01b6064820152608401610441565b610a856000826108b5565b6001600160a01b0383166000908152600360205260408120805460019290610aae90849061171d565b90915550506001600160a01b0382166000908152600360205260408120805460019290610adc9084906116f1565b909155505060008181526002602052604080822080546001600160a01b0319166001600160a01b0386811691821790925591518493918716917fddf252ad1be2c89b69c2b068fc378daa952ba7f163c4a11628f55a4df523b3ef91a4505050565b610b4681610f7a565b60008181526006602052604090208054610b5f90611760565b15905061053c57600081815260066020526040812061053c91611220565b6007546001600160a01b031633146106375760405162461bcd60e51b815260206004820181905260248201527f4f776e61626c653a2063616c6c6572206973206e6f7420746865206f776e65726044820152606401610441565b600780546001600160a01b038381166001600160a01b0319831681179093556040519116919082907f8be0079c531659141344cd1fd0a4f28419497f9722a3daafe3b4186f6b6457e090600090a35050565b816001600160a01b0316836001600160a01b03161415610c8b5760405162461bcd60e51b815260206004820152601960248201527f4552433732313a20617070726f766520746f2063616c6c6572000000000000006044820152606401610441565b6001600160a01b03838116600081815260056020908152604080832094871680845294825291829020805460ff191686151590811790915591519182527f17307eab39ab6107e8899845ad3d59bd9653f200f220920489ca2b5937696c31910160405180910390a3505050565b610d038484846109a1565b610d0f84848484611015565b6106895760405162461bcd60e51b815260040161044190611651565b6060610d3682610856565b6000610d4d60408051602081019091526000815290565b90506000815111610d6d57604051806020016040528060008152506107d9565b80610d7784611122565b604051602001610d889291906115d2565b6040516020818303038152906040529392505050565b6001600160a01b038216610df45760405162461bcd60e51b815260206004820181905260248201527f4552433732313a206d696e7420746f20746865207a65726f20616464726573736044820152606401610441565b6000818152600260205260409020546001600160a01b031615610e595760405162461bcd60e51b815260206004820152601c60248201527f4552433732313a20746f6b656e20616c7265616479206d696e746564000000006044820152606401610441565b6001600160a01b0382166000908152600360205260408120805460019290610e829084906116f1565b909155505060008181526002602052604080822080546001600160a01b0319166001600160a01b03861690811790915590518392907fddf252ad1be2c89b69c2b068fc378daa952ba7f163c4a11628f55a4df523b3ef908290a45050565b6000828152600260205260409020546001600160a01b0316610f5b5760405162461bcd60e51b815260206004820152602e60248201527f45524337323155524953746f726167653a2055524920736574206f66206e6f6e60448201526d32bc34b9ba32b73a103a37b5b2b760911b6064820152608401610441565b600082815260066020908152604090912082516104e29284019061125a565b6000610f858261053f565b9050610f926000836108b5565b6001600160a01b0381166000908152600360205260408120805460019290610fbb90849061171d565b909155505060008281526002602052604080822080546001600160a01b0319169055518391906001600160a01b038416907fddf252ad1be2c89b69c2b068fc378daa952ba7f163c4a11628f55a4df523b3ef908390a45050565b60006001600160a01b0384163b1561111757604051630a85bd0160e11b81526001600160a01b0385169063150b7a0290611059903390899088908890600401611601565b602060405180830381600087803b15801561107357600080fd5b505af19250505080156110a3575060408051601f3d908101601f191682019092526110a091810190611570565b60015b6110fd573d8080156110d1576040519150601f19603f3d011682016040523d82523d6000602084013e6110d6565b606091505b5080516110f55760405162461bcd60e51b815260040161044190611651565b805181602001fd5b6001600160e01b031916630a85bd0160e11b149050610798565b506001949350505050565b6060816111465750506040805180820190915260018152600360fc1b602082015290565b8160005b8115611170578061115a8161179b565b91506111699050600a83611709565b915061114a565b60008167ffffffffffffffff81111561118b5761118b61180c565b6040519080825280601f01601f1916602001820160405280156111b5576020820181803683370190505b5090505b8415610798576111ca60018361171d565b91506111d7600a866117b6565b6111e29060306116f1565b60f81b8183815181106111f7576111f76117f6565b60200101906001600160f81b031916908160001a905350611219600a86611709565b94506111b9565b50805461122c90611760565b6000825580601f1061123c575050565b601f01602090049060005260206000209081019061053c91906112de565b82805461126690611760565b90600052602060002090601f01602090048101928261128857600085556112ce565b82601f106112a157805160ff19168380011785556112ce565b828001600101855582156112ce579182015b828111156112ce5782518255916020019190600101906112b3565b506112da9291506112de565b5090565b5b808211156112da57600081556001016112df565b600067ffffffffffffffff8084111561130e5761130e61180c565b604051601f8501601f19908116603f011681019082821181831017156113365761133661180c565b8160405280935085815286868601111561134f57600080fd5b858560208301376000602087830101525050509392505050565b80356001600160a01b038116811461138057600080fd5b919050565b60006020828403121561139757600080fd5b6107d982611369565b600080604083850312156113b357600080fd5b6113bc83611369565b91506113ca60208401611369565b90509250929050565b6000806000606084860312156113e857600080fd5b6113f184611369565b92506113ff60208501611369565b9150604084013590509250925092565b6000806000806080858703121561142557600080fd5b61142e85611369565b935061143c60208601611369565b925060408501359150606085013567ffffffffffffffff81111561145f57600080fd5b8501601f8101871361147057600080fd5b61147f878235602084016112f3565b91505092959194509250565b6000806040838503121561149e57600080fd5b6114a783611369565b9150602083013580151581146114bc57600080fd5b809150509250929050565b600080604083850312156114da57600080fd5b6114e383611369565b9150602083013567ffffffffffffffff8111156114ff57600080fd5b8301601f8101851361151057600080fd5b61151f858235602084016112f3565b9150509250929050565b6000806040838503121561153c57600080fd5b61154583611369565b946020939093013593505050565b60006020828403121561156557600080fd5b81356107d981611822565b60006020828403121561158257600080fd5b81516107d981611822565b60006020828403121561159f57600080fd5b5035919050565b600081518084526115be816020860160208601611734565b601f01601f19169290920160200192915050565b600083516115e4818460208801611734565b8351908301906115f8818360208801611734565b01949350505050565b6001600160a01b0385811682528416602082015260408101839052608060608201819052600090611634908301846115a6565b9695505050505050565b6020815260006107d960208301846115a6565b60208082526032908201527f4552433732313a207472616e7366657220746f206e6f6e20455243373231526560408201527131b2b4bb32b91034b6b83632b6b2b73a32b960711b606082015260800190565b6020808252602e908201527f4552433732313a2063616c6c6572206973206e6f7420746f6b656e206f776e6560408201526d1c881b9bdc88185c1c1c9bdd995960921b606082015260800190565b60008219821115611704576117046117ca565b500190565b600082611718576117186117e0565b500490565b60008282101561172f5761172f6117ca565b500390565b60005b8381101561174f578181015183820152602001611737565b838111156106895750506000910152565b600181811c9082168061177457607f821691505b6020821081141561179557634e487b7160e01b600052602260045260246000fd5b50919050565b60006000198214156117af576117af6117ca565b5060010190565b6000826117c5576117c56117e0565b500690565b634e487b7160e01b600052601160045260246000fd5b634e487b7160e01b600052601260045260246000fd5b634e487b7160e01b600052603260045260246000fd5b634e487b7160e01b600052604160045260246000fd5b6001600160e01b03198116811461053c57600080fdfea2646970667358221220ec081d61bd65d239650c28564dadbbc1f9b7d2b4ce9fb7a2217cf1a8e7ab032464736f6c63430008070033",
  "linkReferences": {},
  "deployedLinkReferences": {}
}