{
  "_format": "hh-sol-artifact-1",
  "contractName": "Verifier",
  "sourceName": "contracts/verifier.sol",
  "abi": [
    {
      "inputs": [
        {
          "internalType": "uint256[2]",
          "name": "a",
          "type": "uint256[2]"
        },
        {
          "internalType": "uint256[2][2]",
          "name": "b",
          "type": "uint256[2][2]"
        },
        {
          "internalType": "uint256[2]",
          "name": "c",
          "type": "uint256[2]"
        },
        {
          "internalType": "uint256[4]",
          "name": "input",
          "type": "uint256[4]"
        }
      ],
      "name": "verifyProof",
      "outputs": [
        {
          "internalType": "bool",
          "name": "r",
          "type": "bool"
        }
      ],
      "stateMutability": "view",
      "type": "function"
    }
  ],
  "bytecode": "0x608060405234801561001057600080fd5b5061130a806100206000396000f3fe608060405234801561001057600080fd5b506004361061002b5760003560e01c80635fe8c13b14610030575b600080fd5b61004361003e3660046110ae565b610057565b604051901515815260200160405180910390f35b6000610061610f1c565b60408051808201825287518152602080890151818301529083528151608080820184528851518285019081528951840151606084015282528351808501855289840180515182525184015181850152828401528483019190915282518084018452875181528783015181840152848401528251600480825260a0820190945260009390929091908301908036833701905050905060005b600481101561014757848160048110610113576101136112a8565b602002015182828151811061012a5761012a6112a8565b60209081029190910101528061013f81611255565b9150506100f8565b506101528183610170565b61016157600192505050610168565b6000925050505b949350505050565b60007f30644e72e131a029b85045b68181585d2833e84879b9709143e1f593f00000018161019c610367565b9050806080015151855160016101b29190611207565b146101f95760405162461bcd60e51b81526020600482015260126024820152711d995c9a599a595c8b5898590b5a5b9c1d5d60721b60448201526064015b60405180910390fd5b604080518082019091526000808252602082018190525b86518110156102ea578387828151811061022c5761022c6112a8565b6020026020010151106102815760405162461bcd60e51b815260206004820152601f60248201527f76657269666965722d6774652d736e61726b2d7363616c61722d6669656c640060448201526064016101f0565b6102d6826102d1856080015184600161029a9190611207565b815181106102aa576102aa6112a8565b60200260200101518a85815181106102c4576102c46112a8565b6020026020010151610867565b610903565b9150806102e281611255565b915050610210565b50610313818360800151600081518110610306576103066112a8565b6020026020010151610903565b9050610349610325866000015161099b565b8660200151846000015185602001518587604001518b604001518960600151610a3a565b6103595760019350505050610361565b600093505050505b92915050565b61036f610f6d565b6040805180820182527f21422b2408b853ee5ab3cd70d53bf4e8e696b0bb0137ae0133dae884c208fe1c81527f0c448741b741709179882cbc3996117116af721e5581f663a0a30af06d5013006020808301919091529083528151608080820184527f15d7e7d4fae0e70b3e289b463ef53c36a173467d7559b93bf4ef289a03bb3d3b8285019081527f2a0f57de765bdec8fb1716c17f210f9a6006a5147c5edee2e649a6bd0fd244bf606080850191909152908352845180860186527f0a7a3beb796b0f91cab050314090b1bce5356ac279e9a5fa9033b6f381bd4bb281527f27eee70097b89f7426a46d05d954d458496f97ad8a4da9e15deab303e32213ff818601528385015285840192909252835180820185527f198e9393920d483a7260bfb731fb5d25f1aa493335a9e71297e485b7aef312c28186019081527f1800deef121f1e76426a00665e5c4479674322d4f75edadd46debd5cd992f6ed828501528152845180860186527f090689d0585ff075ec9e99ad690c3395bc4b313370b38ef355acdadcd122975b81527f12c85ea5db8c6deb4aab71808dcb408fe3d1e7690c43d37b4ce6cc0166fa7daa818601528185015285850152835190810184527f1c879b5f89479ee022043f6a0976197eee5f12ce150d72a5ac43c42ef90a20bf8185019081527f22ff9a1280dcdc4aa19d2d913c0f93a4ecbf8dffd8e58e0d10a7487204c63d9b828401528152835180850185527f24d8109cc21052cc777bc83589de64fe0b4871d86ee356e292740c5066bca0ba81527f236bd0c0807cff8249120f0c2e359f607680c3ecbb2558b09de83dc13c0a35398185015281840152908401528151600580825260c08201909352919082015b60408051808201909152600080825260208201528152602001906001900390816105ea57505060808201908152604080518082019091527f0e31d911df35f4d1912ecf030b25c46af124f09690b4e878b1273ea326741fc181527f0b22e5050304c658fe0f8c30abafb9e1d015ef2e0d259c1a88abb7276bb1f2a760208201529051805160009061067d5761067d6112a8565b602002602001018190525060405180604001604052807f19cf58a1006f7f0d0676e707b5df89a84c7bb1c269ce899d45156994a220f82881526020017f2a686532b984bde289463d2fc99f5c6d31a9267ecd604251643ff467eeec24aa81525081608001516001815181106106f4576106f46112a8565b602002602001018190525060405180604001604052807f03630fa4cb2e41183e798461e83ee14cedd11d08699f0213c4be395e75f1403281526020017f075c2a2bcd013f90d876874e46c4dc2929a8799a3ede67ec767e0203e4c95f76815250816080015160028151811061076b5761076b6112a8565b602002602001018190525060405180604001604052807f1d9f238dc6d3554d1887c49dbedfca63e41bc60ae996073b77b79cecdb1dc4c381526020017f09c20849ba6cd24e83e2ab8376d7d4228dd56d52f6aefa60c2b55c4dc4c211a981525081608001516003815181106107e2576107e26112a8565b602002602001018190525060405180604001604052807f19972f0c34bb5f2b982562a2e17c29fe7adad982c2c92b9155a3af741e1634e381526020017f2c595cc21a3898b3ff1b42091abcdfddbafb9818c0e778ced87266735832d7d98152508160800151600481518110610859576108596112a8565b602002602001018190525090565b6040805180820190915260008082526020820152610883610fbe565b835181526020808501519082015260408101839052600060608360808460076107d05a03fa90508080156108b6576108b8565bfe5b50806108fb5760405162461bcd60e51b81526020600482015260126024820152711c185a5c9a5b99cb5b5d5b0b59985a5b195960721b60448201526064016101f0565b505092915050565b604080518082019091526000808252602082015261091f610fdc565b8351815260208085015181830152835160408301528301516060808301919091526000908360c08460066107d05a03fa90508080156108b65750806108fb5760405162461bcd60e51b81526020600482015260126024820152711c185a5c9a5b99cb5859190b59985a5b195960721b60448201526064016101f0565b604080518082019091526000808252602082015281517f30644e72e131a029b85045b68181585d97816a916871ca8d3c208c16d87cfd47901580156109e257506020830151155b15610a025750506040805180820190915260008082526020820152919050565b604051806040016040528084600001518152602001828560200151610a279190611270565b610a31908461123e565b90529392505050565b60408051600480825260a08201909252600091829190816020015b6040805180820190915260008082526020820152815260200190600190039081610a5557505060408051600480825260a0820190925291925060009190602082015b610a9f610ffa565b815260200190600190039081610a975790505090508a82600081518110610ac857610ac86112a8565b60200260200101819052508882600181518110610ae757610ae76112a8565b60200260200101819052508682600281518110610b0657610b066112a8565b60200260200101819052508482600381518110610b2557610b256112a8565b60200260200101819052508981600081518110610b4457610b446112a8565b60200260200101819052508781600181518110610b6357610b636112a8565b60200260200101819052508581600281518110610b8257610b826112a8565b60200260200101819052508381600381518110610ba157610ba16112a8565b6020026020010181905250610bb68282610bc5565b9b9a5050505050505050505050565b60008151835114610c115760405162461bcd60e51b81526020600482015260166024820152751c185a5c9a5b99cb5b195b99dd1a1ccb59985a5b195960521b60448201526064016101f0565b82516000610c2082600661121f565b905060008167ffffffffffffffff811115610c3d57610c3d6112be565b604051908082528060200260200182016040528015610c66578160200160208202803683370190505b50905060005b83811015610ea157868181518110610c8657610c866112a8565b60200260200101516000015182826006610ca0919061121f565b610cab906000611207565b81518110610cbb57610cbb6112a8565b602002602001018181525050868181518110610cd957610cd96112a8565b60200260200101516020015182826006610cf3919061121f565b610cfe906001611207565b81518110610d0e57610d0e6112a8565b602002602001018181525050858181518110610d2c57610d2c6112a8565b6020908102919091010151515182610d4583600661121f565b610d50906002611207565b81518110610d6057610d606112a8565b602002602001018181525050858181518110610d7e57610d7e6112a8565b60209081029190910181015151015182610d9983600661121f565b610da4906003611207565b81518110610db457610db46112a8565b602002602001018181525050858181518110610dd257610dd26112a8565b602002602001015160200151600060028110610df057610df06112a8565b602002015182610e0183600661121f565b610e0c906004611207565b81518110610e1c57610e1c6112a8565b602002602001018181525050858181518110610e3a57610e3a6112a8565b602002602001015160200151600160028110610e5857610e586112a8565b602002015182610e6983600661121f565b610e74906005611207565b81518110610e8457610e846112a8565b602090810291909101015280610e9981611255565b915050610c6c565b50610eaa61101a565b6000602082602086026020860160086107d05a03fa90508080156108b6575080610f0e5760405162461bcd60e51b81526020600482015260156024820152741c185a5c9a5b99cb5bdc18dbd9194b59985a5b1959605a1b60448201526064016101f0565b505115159695505050505050565b6040805160a081019091526000606082018181526080830191909152815260208101610f46610ffa565b8152602001610f68604051806040016040528060008152602001600081525090565b905290565b6040805160e08101909152600060a0820181815260c0830191909152815260208101610f97610ffa565b8152602001610fa4610ffa565b8152602001610fb1610ffa565b8152602001606081525090565b60405180606001604052806003906020820280368337509192915050565b60405180608001604052806004906020820280368337509192915050565b604051806040016040528061100d611038565b8152602001610f68611038565b60405180602001604052806001906020820280368337509192915050565b60405180604001604052806002906020820280368337509192915050565b600082601f83011261106757600080fd5b61106f61119f565b80838560408601111561108157600080fd5b60005b60028110156110a3578135845260209384019390910190600101611084565b509095945050505050565b6000806000806101808086880312156110c657600080fd5b6110d08787611056565b9450604087605f8801126110e357600080fd5b6110eb61119f565b8082890160c08a018b81111561110057600080fd5b60005b600281101561112a576111168d84611056565b855260209094019391850191600101611103565b508298506111388c82611056565b975050505050508661011f87011261114f57600080fd5b6111576111d6565b80610100880189848a01111561116c57600080fd5b600093505b600484101561119157803583526001939093019260209283019201611171565b509598949750929550505050565b6040805190810167ffffffffffffffff811182821017156111d057634e487b7160e01b600052604160045260246000fd5b60405290565b6040516080810167ffffffffffffffff811182821017156111d057634e487b7160e01b600052604160045260246000fd5b6000821982111561121a5761121a611292565b500190565b600081600019048311821515161561123957611239611292565b500290565b60008282101561125057611250611292565b500390565b600060001982141561126957611269611292565b5060010190565b60008261128d57634e487b7160e01b600052601260045260246000fd5b500690565b634e487b7160e01b600052601160045260246000fd5b634e487b7160e01b600052603260045260246000fd5b634e487b7160e01b600052604160045260246000fdfea26469706673582212201023eb81fd25c1105fb7cf85c488ef87ef939fb8b7a74c14922339cdf6d9593e64736f6c63430008070033",
  "linkReferences": {},
  "deployedLinkReferences": {}
}